:020000040800F2
:10000000F00400209D010008CB150008F91300083A
:10001000C9150008A9020008051A00080000000020
:10002000000000000000000000000000CF150008E4
:10003000AB02000800000000CD150008D115000833
:10004000B7010008B7010008B7010008B7010008B0
:10005000B7010008B7010008AD020008B7010008A9
:10006000B7010008B7010008B7010008B701000890
:10007000B7010008B7010008B7010008B701000880
:10008000B7010008B7010008B7010008B701000870
:10009000B7010008B7010008B7010008B701000860
:1000A000B7010008B7010008B7010008B701000850
:1000B000B7010008B7010008B7010008B701000840
:1000C000B7010008B7010008B7010008B701000830
:1000D000B7010008B7010008B7010008F9190008C6
:1000E000B3020008B7010008B7010008B701000813
:1000F000B7010008B7010008B7010008B701000800
:10010000B7010008B7010008B7010008B7010008EF
:10011000B7010008B70100087D160008B701000804
:10012000B7010008B7010008B7010008B7010008CF
:10013000B7010008B7010008B7010008B7010008BF
:10014000B7010008B7010008B7010008B7010008AF
:10015000B7010008B7010008B7010008B70100089F
:10016000B7010008B7010008B7010008B70100088F
:10017000B7010008B7010008B7010008000000003F
:10018000B7010008B7010008DFF80CD000F07AF8DA
:1001900000480047551B0008F0040020064880472F
:1001A00006480047FEE7FEE7FEE7FEE7FEE7FEE75C
:1001B000FEE7FEE7FEE7FEE76D160008890100088E
:1001C0002DE9F05F0546002092469B46884606468C
:1001D000814640241BE0284641464746224600F01F
:1001E00041F853465A46C01A914110D31146184659
:1001F000224600F028F82D1A67EB01084F462246E8
:100200000120002100F01FF817EB00094E41201ECD
:10021000A4F10104DFDC484631462A464346BDE8E6
:10022000F09FD2B201E000F8012B491EFBD27047CB
:100230000022F6E710B513460A4604461946FFF7B2
:10024000F0FF204610BD202A04DB203A00FA02F11C
:10025000002070479140C2F1200320FA03F31943B4
:1002600090407047202A04DB203A21FA02F0002156
:10027000704721FA02F3D040C2F1200291400843B6
:1002800019467047064C074D06E0E06840F0010350
:1002900094E8070098471034AC42F6D3FFF778FF94
:1002A000D41B0008F41B0008FEE77047012000F093
:1002B0008FB84FF4005000F08BB872B6FEE7000024
:1002C00001224FF4E071014800F086B900140240A9
:1002D00000224FF4E071014800F07EB900140240A2
:1002E0002DE9F0410446876D00F07CF9064694F84C
:1002F00035000025022806D08020606584F834503F
:100300000120BDE8F0812068016821F0160101603C
:100310002068416921F080014161206C08B9A06C1E
:1003200020B12068016821F008010160206801689F
:1003300021F0010101600CE000F054F9801B052858
:1003400007D920206065032084F8350084F83450F4
:10035000D7E720680068C007EED194F85C103F2012
:100360008840B860012084F8350084F834500020BB
:10037000C7E790F83510022903D08021416501209C
:100380007047052180F835100068016821F00101EF
:10039000016000207047000070B5044600F022F9AB
:1003A0000546601C02D004480078044400F01AF9A5
:1003B000401BA042FAD370BD00000020012804D0E9
:1003C000B0F5005F03D1FFF77BBFFFF781BF704738
:1003D000044910B50A68024202D00860FFF7EEFF38
:1003E00010BD0000143C01402DE9F84FDFF8BCA11E
:1003F0000022012503264FF00F090AF1040BAAF190
:10040000040E00BF0B6805FA02F42340A34270D12A
:100410000F7907F00307012F01D0022F16D187684B
:100420004FEA420806FA08FC27EA0C07D1F80CC08C
:100430000CFA08FC4CEA070CC0F808C04768A74350
:100440000C79C4F3001494403C4344600C79E443B9
:10045000A4070AD0C4684FEA420C06FA0CF7BC4362
:100460008F6807FA0CF72743C7600C7904F0030480
:10047000022C12D1D40800EB840CDCF82040570782
:10048000FF0E09FA07F824EA0804D1F8108008FAE8
:1004900007F848EA0408CCF8208004684FEA420CC8
:1004A00006FA0CF7BC430F7907F0030707FA0CF7BD
:1004B000274307604C6814F4403F70D03C4C2768D9
:1004C00047F480472760246822F0030704F480443F
:1004D0000094384C07EB040CDCF8084897074FEA07
:1004E000177809FA08F7BC43334FB84202D1002706
:1004F00024E054E0314FB84201D101271EE0304FD3
:10050000B84201D1022719E02E4FB84201D103278A
:1005100014E02D4FB84201D104270FE02B4FB84211
:1005200001D105270AE02A4FB84201D1062705E08C
:10053000284FB84201D1072700E0082707FA08F73B
:100540002743CCF80878DAF800405746D1F804C0C1
:100550009C435FEACC2C00D51C433C60DBF8004098
:100560005F46D1F804C09C435FEA8C2C00D51C4345
:100570003C60DEF800407746D1F804C09C435FEA57
:100580008C3C00D51C433C60084F083F3C68D1F8C8
:1005900004C09C435FEACC3C00D51C433C60521C29
:1005A000102AFFF42FAFBDE8F88F0000083C01408F
:1005B0004438024000300140000002400004024084
:1005C00000080240000C02400010024000140240EB
:1005D00000180240001C02400AB181617047090402
:1005E000FBE7000001488068704700000000002021
:1005F0000248816802781144816070470000002041
:100600000B4810B5016841F400710160016841F4C4
:1006100080610160016841F480710160032000F095
:100620006FF80F2000F006F800F024F8002010BD4D
:10063000003C024070B50D4D04464FF47A712878A5
:10064000B1FBF0F00A490968B1FBF0F000F00CFBD7
:1006500048B9102C07D200222146501E00F030F875
:1006600000206C6070BD012070BD00000000002003
:100670000C0000200A4808B5016841F4804101607F
:10068000006800F4804000900548001F016841F0B8
:1006900080510160006800F08050009008BD0000AB
:1006A00044380240002809DB00F01F02012191407C
:1006B0004009800000F1E020C0F800117047000000
:1006C000F0B40E4B1B680C46C3F30223C3F10705BD
:1006D000042D00D90425191D072901D2002300E0AB
:1006E000DB1E012606FA05F1491E214099409E4075
:1006F000761E16403143F0BC01F096B90CED00E0D7
:10070000064900F0070208684FF6FF03184040EA68
:100710000220034A10430860704700000CED00E01F
:100720000000FA052DE9F0470E46050065D0DFF818
:100730001481D8F80000F7B200F00700B04207D2E9
:1007400088F80070D8F8000000F00700B04254D1DB
:1007500028683D4C810712D5400703D5206840F436
:10076000E05020602878000703D5206840F46040FE
:1007700020602068A96820F0F000084320602878F5
:10078000C0072DD0304968680839012812D00228E6
:1007900013D0032811D00968890700292DDA2168B0
:1007A00021F0030101432160FFF71CFF814641F264
:1007B000883A0EE009688903EFE709688901ECE7E8
:1007C000FFF710FFA0EB0901514502D90320BDE856
:1007D000F0872068696800F00C00B0EB810FEFD162
:1007E000D8F80010404601F00701B14207D9077060
:1007F000006800F00700B04201D00120E7E7287848
:10080000400705D52068E96820F4E05008432060DF
:100810002878000706D52068296920F4604040EA5E
:10082000C100206000F038F82168084AC1F30311C4
:10083000515CC8400649086006480068FFF7FAFEA8
:100840000020C4E7003C024008380240BC1B0008FE
:100850000C000020040000200448054900680968D5
:10086000044AC1F38221515CC84070470C0000204B
:1008700008380240CC1B0008044805490068096894
:10088000044AC1F34231515CC84070470C0000205B
:1008900008380240CC1B0008154810B5006810F05D
:1008A0000C02144813D01449042A0FD0082A0ED180
:1008B0000F4C241F2268236802F03F025B0207D519
:1008C0002068C0F38810A0FB010106E0084610BDB7
:1008D0002168C1F38811A1FB00010023FFF770FC20
:1008E0002168C1F30141491C4900B0FBF1F010BD82
:1008F000083802400024F40040787D012DE9F84FCB
:1009000004006ED02078DFF84C93C007A9F10405ED
:100910004AD009F104000168C1F38101012908D01E
:100920000068C0F3810002280AD1D9F80000400213
:1009300006D52868800337D560680028E1D033E009
:100940006068B0F5803F10D0B0F5A02F286810D0B7
:1009500020F480302860286820F4802028606068B7
:10096000A8B1FFF73FFE06460DE0286840F480304E
:10097000F4E740F480202860F7E700BFFFF732FE7D
:10098000801B642873D828688003F7D50CE0FFF734
:1009900029FE064605E000BFFFF724FE801B642801
:1009A000F0D828688003F7D42078DFF8AC8280077D
:1009B0004FF0000A3ED5A748001D016811F00C0F4A
:1009C00008D00068C0F3810002280BD1D9F80000DC
:1009D000400207D42868800716D5E068012800D1B6
:1009E00012E033E1E068B8B10120C8F80000FFF779
:1009F000F9FD064605E000BFFFF7F4FD801B022865
:100A0000C0D828688007F7D52868216920F0F80049
:100A100040EAC10028600DE0C8F800A0FFF7E2FD41
:100A2000064604E0FFF7DEFD801B02281FD8286879
:100A30008007F7D42078000722D5864F8748616960
:100A4000703771B101210160FFF7CCFD064604E06B
:100A5000FFF7C8FD801B022809D838688007F7D542
:100A60000EE0C0F800A0FFF7BDFD064605E082E0FD
:100A7000FFF7B8FD801B02287DD838688007F7D4BF
:100A80002078400768D5DFF8CCB100270BF13C0B8C
:100A9000DBF80000C0000BD4DBF8001041F08051FF
:100AA000CBF80010DBF80000012700F08050009028
:100AB0006B4E3068C00510D4306840F480703060F0
:100AC000FFF790FD009005E0FFF78CFD0099401ABC
:100AD000022850D83068C005F6D55E4EA0686C3646
:100AE00001280FD00528306810D020F001003060B8
:100AF000306820F004003060A068B8B1FFF772FDE4
:100B000000900FE0306840F00100F4E740F004008E
:100B10003060F7E7FFF766FD0099411A41F288302F
:100B2000814266D830688007F4D50EE0FFF75AFDA1
:100B3000009007E0FFF756FD0099411A41F2883016
:100B4000814256D830688007F4D42FB1DBF800100A
:100B500021F08051CBF80010A069C8B33D49091DB0
:100B60000968C1F3810102294AD00228504607D002
:100B7000C8F8600000E03CE0FFF734FD04463BE0CD
:100B80004746C8F86000FFF72DFD064605E000BFA8
:100B9000FFF728FD801B02282BD828688001F7D496
:100BA000D4E907010843A16A2E4A490802EB014132
:100BB000626A41EA8211084394F82C1040EA01610C
:100BC000C9F8001001203866FFF70CFD044606E066
:100BD0003EE000BFFFF706FD001B022809D8286889
:100BE0008001F7D534E000BFFFF7FCFC001B0228B2
:100BF00002D90320BDE8F88F28688001F4D427E0EB
:100C00000128F7D0D9F80000E26900F48001914290
:100C10001CD1226A00F03F01914217D147F6C07102
:100C2000626A0140B1EB821F10D1A26A4FF0FF331C
:100C300000F4403103EB5202B1EB024F06D194F8BD
:100C40002C1000F07060B0EB016F01D00120D1E7F3
:100C50000020CFE70438024000004742800E4742A0
:100C6000007000400000FFFF10B5401EB0F1807F13
:100C700001D3012010BD4FF0E02460610F21601707
:100C800000F0D2FE0020A06107202061002010BDEE
:100C90007047704770B590F83C20012A32D001248B
:100CA00080F83C40022280F83D2003685A689D6825
:100CB00022F070060A6832435A60134B02689A4267
:100CC00014D0B2F1804F11D0104B9A420ED0104B7D
:100CD0009A420BD00F4B9A4208D00F4B9A4205D044
:100CE0000E4B9A4202D00E4B9A4204D1496825F02D
:100CF00080031943916080F83D40002180F83C104A
:100D0000084670BD022070BD000001400004004094
:100D100000080040000C0040000401400040014079
:100D20000018004010B5040003D094F83D0010B145
:100D300007E0012010BD002084F83C00204600F0B0
:100D40001FF8022084F83D00211D206800F09CFC63
:100D5000012084F8460084F83E0084F83F0084F8BF
:100D6000400084F8410084F8420084F8430084F88D
:100D7000440084F8450084F83D00002010BD0000C8
:100D800008B500680B49884212D10B48016841F050
:100D9000100101600068002200F010000090114670
:100DA0003620FFF78DFCBDE808403620FFF77ABCFF
:100DB00008BD0000001000404038024070472DE997
:100DC000F04104460068C66805694FF00007A907AE
:100DD00013D5B10711D5F91E0161012020772068D4
:100DE00080698007204602D0FFF7E8FF04E000F0AA
:100DF0007EF8204600F07CF82777680716D5700744
:100E000014D521686FF00400086102202077206863
:100E1000806910F4407F204602D0FFF7CFFF04E046
:100E200000F065F8204600F063F82777280715D50D
:100E3000300713D521686FF008000861042020777F
:100E40002068C0698007204602D0FFF7B7FF04E0A2
:100E500000F04DF8204600F04BF82777E80616D54D
:100E6000F00614D521686FF0100008610820207783
:100E70002068C06910F4407F204602D0FFF79EFF33
:100E800004E000F034F8204600F032F82777E80755
:100E900008D0F00706D021686FF0010008612046F5
:100EA00000F027F8280608D5300606D521686FF02F
:100EB000800008612046FFF7EBFE680608D5700643
:100EC00006D521686FF040000861204600F012F856
:100ED000A8060AD5B00608D521686FF02000086181
:100EE0002046BDE8F041FFF7D4BEBDE8F081704771
:100EF000704770477047704770470000F8B5016849
:100F000004460868CA684B6910F00F0F4FF00005DF
:100F100059D003F0010602F49077374365D0C1073A
:100F200005D0D10503D5616C41F001016164410731
:100F300005D5D90703D0616C41F0020161648107D6
:100F400005D5D90703D0616C41F004016164010744
:100F500007D502F02001314303D0616C41F0080154
:100F60006164616C00293AD0800604D5900602D5F0
:100F7000204600F01FFC20684069616CC0F38010BF
:100F8000090700D460B3204600F0EDFB20684069FB
:100F9000400621D52068143050E8001F21F04001A0
:100FA00040E80012002AF5D1E06BA8B17249016552
:100FB000E06BFFF7DEF9002811D0E06B016D01B0A6
:100FC000BDE8F040084783060FD593060DD52046AF
:100FD000BDE8F84000F0EEBB2046FFF78DFFF8BDFE
:100FE0002046FFF789FF6564F8BD266B2023012E9C
:100FF0007ED1C6067CD5D6067AD5086848680090AA
:1010000048694FF0020640064DD5E26B1068406813
:101010004FF480770004000C3AD0A18D814237D97B
:10102000E085D069B8422DD020680C3050E8001F10
:1010300021F4807140E80012002AF5D120681430B4
:1010400050E8001F21F0010140E80012002AF5D10C
:101050002068143050E8001F21F0400140E80012E1
:10106000002AF5D184F84230256320680C3050E81E
:10107000001F21F0100140E80012002AF5D1E06BBA
:10108000FFF72EF96663A08DE18D401A81B206E06C
:10109000A18D8142A8D1D069B842A5D1666320460E
:1010A000FFF729FFF8BDA08DE18D401A81B2E08DD8
:1010B0000028F7D00029F5D020680C3050E8002F28
:1010C00022F4907240E80027002FF5D120681430F8
:1010D00050E8002F22F0010240E80027002FF5D150
:1010E00084F84230256320680C3050E8002F00E07F
:1010F00006E022F0100240E80023002BF3D1CDE7F8
:1011000005062BD5150629D594F841002128C9D10B
:10111000A068B0F5805F01D12069B0B1206A411CA0
:101120002162216800784860E08C401E0004000CB9
:10113000E084B7D12068C16821F08001C1602068D7
:10114000C16841F04001C160F8BD206A0088C0F369
:1011500008004860206A801C2062E5E74006F3D55D
:101160005006F1D5CA68204622F04002CA6084F8D1
:10117000413000F040F9F8BD5917000870B504007F
:1011800004D094F84100002510B106E0012070BDA4
:1011900084F84050204600F023F8242084F84100D1
:1011A0002068C16821F40051C160204600F064FB52
:1011B0002068016921F4904101612068416921F0B2
:1011C0002A0141612068C16841F40051C160656431
:1011D000202084F8410084F842006563002070BD3F
:1011E00070B586B0044614216846FFF721F8284EF2
:1011F000226800212748022303240725B2421DD17B
:10120000244A1432166846F010061660126802F07E
:1012100010020592026842F001020260006802AA10
:1012200000F00100059082E832006002CDE9000381
:1012300069461948FFF7D8F806B070BD174EB2429C
:10124000FAD1144A1032166846F4802616601268E5
:1012500002F480220592026842F0020202600068F5
:1012600002AA00F00200059082E832004FF44060CC
:10127000CDE9000369460A48FFF7B6F80022114697
:101280002720FFF71DFA2720FFF70CFAD4E700000C
:101290000010014030380240000002400048004089
:1012A000000402402DE9F84F044690F842009A46A7
:1012B00016460D46202802D00220BDE8F88FB5B1B1
:1012C000AEB100206064222184F842102063FFF751
:1012D00089F9A6858146E685A0684FF480582027C5
:1012E000404501D1206920B12E46002529E001208A
:1012F000E3E7002625E04B46002220212046CDF8DA
:1013000000A000F03FFB18B184F842700320D4E73E
:1013100026B1A06840451AD038B108E0206840687E
:10132000C0F3080025F8020B08E0206978B12068B6
:10133000406800F07F0000BF06F8010BE08D401E02
:10134000E085E08D0028D6D184F84270B5E72068AA
:101350004068F1E770472DE9F843044690F84100F2
:10136000984616460D46202802D00220BDE8F88394
:1013700085B17EB100206064212084F84100FFF730
:1013800031F9A6848146E684A0682027B0F5805F05
:1013900002D003E00120E9E7206910B12E460025C4
:1013A0000EE000260CE08021204600F0EBFAA8B900
:1013B000C6B116F8010B21684860E08C401EE0843D
:1013C000E08C4B464FF00002CDF800800028EAD1B7
:1013D0004FF04001204600F0D5FA40B184F841704A
:1013E0000320C3E735F8020BC0F30800E3E784F8F5
:1013F00041700020BAE77047FEE700002DE9F04396
:1014000087B014216846FEF713FF3C4800240168AA
:1014100041F004010160016801F0040105910168D7
:1014200041F020010160016801F02001059101688F
:1014300041F080010160016801F0800105910168BF
:1014400041F001010160016801F0010105910168AD
:1014500041F002010160016801F00201059101689B
:1014600041F0400101600068DFF8948000F0400026
:101470004FF4E0750590012229464046FFF7ACF88D
:101480000122DFF88090D70339464846FFF7A4F8D9
:10149000B8104FF48816CDE90006694602941A4840
:1014A000FEF7A2FF00950125CDE9015469464046AB
:1014B0000394FEF799FF0095CDE90164694613484E
:1014C000FEF792FF0097CDE9015469464846039420
:1014D000FEF78AFF002211460620FFF7F1F80620EA
:1014E000FFF7E0F8002211462820FFF7E9F828204E
:1014F000FFF7D8F807B0BDE8F083000030380240AD
:10150000001402400018024000080240000002409F
:101510001CB500240F4800940D490194016053212B
:10152000C0E9011440F2E731C16080218161FFF719
:10153000F9FB08B1FEF7C1FE009469460548019425
:10154000FFF7A8FB002801D0FEF7B7FE1CBD000086
:1015500000100040140000200C4810B50A4901603A
:101560004FF4E1314160002181600C22C160C0E98B
:1015700004128161C161FFF701FE002803D0BDE8BC
:101580001040FEF79ABE10BD001001405C00002024
:101590000C4810B50A4901604FF4E1314160002167
:1015A00081600C22C160C0E904128161C161FFF752
:1015B000E5FD002803D0BDE81040FEF77EBE10BD5B
:1015C00000480040A4000020FEE7FEE77047704797
:1015D000FFF70EB830B593B030216846FEF728FE0D
:1015E00014210CA8FEF724FE1E480025016841F0D6
:1015F00080510160006800F0805011901A48016825
:1016000041F4804101600068022400F480401190A0
:1016100001200090000401908001CDE906401920CE
:1016200008904FF4A870CDE9090404200B90684697
:10163000FFF764F908B172B6FEE70CA90F2081E844
:1016400031004FF4A0500F904FF4805010900521BE
:101650000CA8FFF767F8002801D072B6FEE713B0B8
:1016600030BD000040380240007000400248016870
:1016700041F470010160704788ED00E00148FFF718
:101680009EBB000014000020F0B50268274B284DD7
:10169000284E294F294C4FF0804C984209D0604584
:1016A00007D0A84205D0B04203D0B84201D0A04232
:1016B00004D122F0700E4A6842EA0E0298421BD012
:1016C000604519D0A84217D0B04215D0B84213D007
:1016D000A04211D01A4DA8420ED01A4DA8420BD0EC
:1016E000194DA84208D0194DA84205D0184DA8425E
:1016F00002D0184DA84203D122F44075CA682A438B
:101700004D6922F080022A438D68C5620D688562AA
:10171000984201D0A04201D109690163016841F0FA
:1017200004010160012141610260F0BD000001403F
:101730000004004000080040000C0040000401408C
:1017400000400140004401400048014000180040B2
:10175000001C00400020004010B5806B0021C185B6
:10176000FFF7CAFB10BD01680C3151E8002F22F4CD
:10177000907241E80023002BF5D10168143151E843
:10178000002F22F0010241E80023002BF5D1016B6C
:10179000012909D101680C3151E8002F22F0100213
:1017A00041E80023002BF5D1202180F842100021D0
:1017B0000163704708B590F84210222901D0022039
:1017C00008BD82684FF480539A4201D1016921B16A
:1017D000816A9A421BD04AB10AE00268816A526863
:1017E000C2F308020A80816A891C08E0026972B1AA
:1017F0000268526802F07F020A70816A491C8162A5
:10180000C18D491E0904090CC18503D01BE0026883
:101810005268F1E70168CA6822F02002CA600168D4
:10182000CA6822F48072CA6001684A6922F0010223
:101830004A61202180F8421000214163026B012A95
:1018400003D0FFF787FD002008BD016301680C315C
:1018500051E8002F22F0100241E80023002BF5D1BF
:1018600001680A68D20602D50A6849680091818D2C
:10187000FFF741FBE7E7000070B504460068016927
:10188000E26821F44051114301612169A068E269D5
:1018900008436169114308432168CA6849F20C632F
:1018A0009A430243CA6020684169A26921F44071E9
:1018B0001143416131492068884202D03049884251
:1018C00002D1FEF7D9FF01E0FEF7C6FFE26900236F
:1018D000192164253226B2F5004F626828D0A0FB9A
:1018E0000101930F9200FEF76BFC0146B0FBF5F08F
:1018F0006FF01802504301EB800006EB0010B0FBC4
:10190000F5F000F0F002B1FBF5F002EB0012B1FBD4
:10191000F5F06FF01803584301EB800006EB001060
:10192000B0FBF5F000F00F0021681044886070BD36
:10193000A0FB010192185B41FEF742FC0146B0FB9F
:10194000F5F00201B1FBF5F06FF01803584301EB1D
:10195000800006EBC000B0FBF5F000F0F80002EBF1
:101960004002B1FBF5F0584301EB800006EBC000EC
:10197000B0FBF5F000F00700D6E7000000100140D2
:10198000001401402DE9F843984617460D460446D9
:10199000089E24E0701C22D0FEF724FEA0EB080075
:1019A000B0421AD8CEB12068C168490717D5802D3A
:1019B00015D0402D13D00168C94309070FD4016821
:1019C0000025406800902046FFF7CDFE08206064A7
:1019D00084F840500120BDE8F8830320FBE720682D
:1019E000006835EA000004D00020B842D2D00020C0
:1019F000F1E70120F9E700000148FFF77FBA000096
:101A0000A4000020FEE700000FB4054B10B503A9A9
:101A1000044A029800F027F810BC5DF814FB00009F
:101A20003D1B0008100000200907090E002804DBF8
:101A300000F1E02080F80014704700F00F0000F182
:101A4000E02080F8141D704702E008C8121F08C18A
:101A5000002AFAD170477047002001E001C1121F2F
:101A6000002AFBD170472DE9F84F994692468846E7
:101A70000546002706E025280AD051464A469047E9
:101A80006D1C7F1C28780028F5D13846BDE8F88FFA
:101A9000002315F8011F18462E2915D115F8011F2E
:101AA00004232A290DD06FF02F022978A1F13004E8
:101AB000092C09D800EB800002EB400008446D1CA3
:101AC000F3E758F8040B6D1C2A78002ADDD0632A4E
:101AD00007D0732A0FD0104651464A4690477F1CC4
:101AE0002AE018F8042B8DF8002000218DF8011051
:101AF0006E46012103E058F8046B4FF0FF315A079E
:101B00004FF0000401D409E0641C84420BDA8C42DB
:101B1000FADB325D002AF7D105E0641C8C42FCDB65
:101B2000305D0028F9D1274404E016F8010B514636
:101B30004A469047641EF8D26D1CA3E713B54FF0D8
:101B4000FF33012269460248FFF705FC00981CBDDF
:101B50005C000020B2B0FEF753FDFFF73BFDFFF73E
:101B60004DFCFFF7D5FCFFF713FDFFF7F5FC4FF039
:101B7000FF344FF47A750AA0FFF746FF234602228E
:101B800069460A48FFF78EFB9DF801209DF800107A
:101B900007A0FFF739FF2846FEF7FEFBEBE7000042
:101BA00077616974696E670A000000005C000020BC
:101BB000256320616E642025630A00000000000098
:101BC00000000000010203040607080900000000ED
:101BD00001020304F41B00080000002014000000B0
:101BE000481A0008081C000814000020DC0400004B
:101BF000581A00080100000010000000000000005A
:081C00000024F40000000000C4
:040000050800018965
:00000001FF
