:020000040800F2
:10000000605700205D020008671D0008691A00089B
:10001000651D0008B9030008F12300080000000076
:100020000000000000000000000000009D0100082A
:100030006D04000800000000F9010008991D000887
:1000400077020008770200087702000877020008AC
:100050007702000877020008AD0400087702000864
:10006000770200087702000877020008770200088C
:10007000BD03000877020008770200087702000835
:10008000770200087702000877020008770200086C
:10009000770200087702000877020008770200085C
:1000A000770200087702000877020008770200084C
:1000B000770200087702000877020008770200083C
:1000C000770200087702000877020008770200082C
:1000D00077020008D923000877020008E52300080A
:1000E000B3040008770200087702000877020008CE
:1000F00077020008770200087702000877020008FC
:1001000077020008770200087702000877020008EB
:1001100077020008770200085D1E0008691E0008CB
:1001200077020008770200087702000877020008CB
:1001300077020008770200087702000877020008BB
:1001400077020008770200087702000877020008AB
:10015000770200087702000877020008770200089B
:10016000770200087702000877020008770200088B
:1001700077020008770200087702000800000000FC
:100180007702000877020008DFF80CD000F002F9CF
:100190000048004725280008605700202C4B1968AC
:1001A0000868B0E8F04F80F30988BFF36F8F4FF015
:1001B000000080F3118870470000000008480068C4
:1001C000006880F308884FF0000080F3148862B65E
:1001D00061B6BFF34F8FBFF36F8F00DF00BF00BF6B
:1001E00008ED00E0DFF80C00016841F470010160E7
:1001F000704700BF88ED00E0EFF30980BFF36F8F19
:10020000134B1A681EF0100F08BF20ED108A20E96A
:10021000F04F106009B44FF0500080F31188BFF325
:100220004F8FBFF36F8F03F0FBFB4FF0000080F3A5
:10023000118809BC19680868B0E8F04F1EF0100F6B
:1002400008BFB0EC108A80F30988BFF36F8F704746
:1002500048000020EFF30580704700000648804703
:1002600006480047FEE7FEE7FEE7FEE7FEE7FEE79B
:10027000FEE7FEE7FEE7FEE74D1E000889010008E5
:100280002DE9F05F0546002092469B4688460646CB
:10029000814640241BE0284641464746224600F05E
:1002A00069F853465A46C01A914110D31146184670
:1002B000224600F050F82D1A67EB01084F462246FF
:1002C0000120002100F047F817EB00094E41201EE5
:1002D000A4F10104DFDC484631462A464346BDE826
:1002E000F09F40EA01039B0703D009E008C9121FF1
:1002F00008C0042AFAD203E011F8013B00F8013BE0
:10030000521EF9D27047D2B201E000F8012B491E0B
:10031000FBD270470022F6E710B513460A460446A2
:100320001946FFF7F0FF204610BD30B50B460146D9
:1003300000202022012409E021FA02F59D4205D384
:1003400003FA02F5491B04FA02F52844151EA2F12E
:100350000102F1DC30BD202A04DB203A00FA02F170
:10036000002070479140C2F1200320FA03F31943A3
:1003700090407047202A04DB203A21FA02F0002145
:10038000704721FA02F3D040C2F1200291400843A5
:1003900019467047064C074D06E0E06840F001033F
:1003A00094E8070098471034AC42F6D3FFF7F0FE0C
:1003B000344A0008544A0008FEE77047014800F03C
:1003C000EBB80000E409002001681823CAB2103A13
:1003D000B2FBF3F2054B6FF30901032A9B5CC36583
:1003E00000D9091D8165084670470000584900087A
:1003F00010B5014600208B698A6A4FF0C07453B172
:10040000B3F5005F15D072B1012A0CD0022A0AD0D0
:10041000032A09D104E01AB1012A06D0022A03D125
:10042000C96AC90100D5012010BDC96AA142FAD02C
:1004300010BD002AF7D0012AF2D0022AF3D0032AF5
:10044000F3D010BD30B50468256825F480252560FB
:10045000046863608368402B036803D09960006878
:10046000C26030BD9A600068C16030BD7047000056
:10047000064982B0884207D1086801684068009048
:10048000002002B001F0B6BF02B070479C09002006
:10049000044A904205D1044A01201070084601F038
:1004A000A9BF70479C09002004000020012000F033
:1004B000F7B94FF4005000F0F3B972B6FEE7000050
:1004C00001224FF4E071014800F0EEBA001402403E
:1004D00000224FF4E071014800F0E6BA0014024037
:1004E0002DE9F0410446876D00F0E4FA064694F8E1
:1004F00035000025022806D08020606584F834503D
:100500000120BDE8F0812068016821F0160101603A
:100510002068416921F080014161206C08B9A06C1C
:1005200020B12068016821F008010160206801689D
:1005300021F0010101600CE000F0BCFA801B0528ED
:1005400007D920206065032084F8350084F83450F2
:10055000D7E720680068C007EED194F85C103F2010
:100560008840B860012084F8350084F834500020B9
:10057000C7E790F83510022903D08021416501209A
:100580007047052180F835100068016821F00101ED
:1005900001600020704700002DE9F84304464FF049
:1005A0000009CDF8009063484FF41651A56D00681E
:1005B000B0FBF1F72E6894F85C10082000FA01F106
:1005C00031420FD021680A6852070BD50A6822F021
:1005D00004020A6094F85C108840A860606D40F0E6
:1005E0000100606594F85C104FF0010808FA01F012
:1005F000304208D021684969090604D5A860606DB9
:1006000040F00200606594F85C100420884030429D
:1006100008D021680968890704D5A860606D40F09A
:100620000400606594F85C1010208840304218D0B7
:1006300021680968090714D5A86020680168490382
:1006400004D50068000308D5A16C07E00168C9055E
:1006500003D4016821F008010160216C09B1204632
:10066000884794F85C1020208840304231D02168BF
:100670000968C9062DD5A86094F8350005282068BA
:10068000016806D0490347D5006800031DD4616C9A
:100690001CE021F0160101602068416921F0800111
:1006A0004161206C08B9A06C20B12068016821F07C
:1006B0000801016094F85C103F208840A86084F82D
:1006C000358084F83490216D1FE0E16B09B120463C
:1006D0008847606D00282BD0606DC00714D00520BE
:1006E00084F835002068016821F00101016000985C
:1006F000401C0090B84203D820680068C007F6D1BB
:1007000084F8358084F83490E16C002910D001B071
:100710002046BDE8F04308470168C905D5D4016803
:1007200021F01001016084F8358084F83490CCE722
:10073000BDE8F883440000202DE9F041044600F0B4
:10074000B9F906465CB1022084F83500002584F82A
:1007500034502068016821F0010101600DE00120A2
:10076000BDE8F08100F0A6F9801B052805D92020FE
:100770006065032084F83500F2E720680068C00750
:10078000F0D12268116820480140D4E901031843E0
:10079000D4E903363343184363691843A369184304
:1007A000E3691843236A18430843616A042903D1A3
:1007B000D4E90B1319430843106020684069666A46
:1007C00020F0070130460E43012704280CD1A06A0F
:1007D0000643E06A40B12046FFF70AFE20B1402000
:1007E000606584F83570BAE7206846612046FFF7F7
:1007F000EBFD94F85C203F2191408160656584F8B1
:1008000035700020ACE700003F8010F02DE9F0418A
:100810000446866D90F83400002501280DD0012093
:1008200084F8340094F835700020012F07D084F844
:10083000340002252846BDE8F0810220FBE70227AC
:1008400084F8357060652046FFF7FCFD94F85C1075
:100850003F208840B0602068016841F016010160C7
:10086000206C20B12068016841F008010160206817
:10087000016841F001010160DCE7000010B50128CA
:1008800006D0B0F5005F08D1BDE81040FFF718BEF4
:10089000FFF71EFE01490120087010BD0000002076
:1008A000044910B50A68024202D00860FFF7E6FF6B
:1008B00010BD0000143C01402DE9F84FDFF8BCA149
:1008C0000022012503264FF00F090AF1040BAAF1BB
:1008D000040E00BF0B6805FA02F42340A34270D156
:1008E0000F7907F00307012F01D0022F16D1876877
:1008F0004FEA420806FA08FC27EA0C07D1F80CC0B8
:100900000CFA08FC4CEA070CC0F808C04768A7437B
:100910000C79C4F3001494403C4344600C79E443E4
:10092000A4070AD0C4684FEA420C06FA0CF7BC438D
:100930008F6807FA0CF72743C7600C7904F00304AB
:10094000022C12D1D40800EB840CDCF820405707AD
:10095000FF0E09FA07F824EA0804D1F8108008FA13
:1009600007F848EA0408CCF8208004684FEA420CF3
:1009700006FA0CF7BC430F7907F0030707FA0CF7E8
:10098000274307604C6814F4403F70D03C4C276804
:1009900047F480472760246822F0030704F480446A
:1009A0000094384C07EB040CDCF8084897074FEA32
:1009B000177809FA08F7BC43334FB84202D1002731
:1009C00024E054E0314FB84201D101271EE0304FFE
:1009D000B84201D1022719E02E4FB84201D10327B6
:1009E00014E02D4FB84201D104270FE02B4FB8423D
:1009F00001D105270AE02A4FB84201D1062705E0B8
:100A0000284FB84201D1072700E0082707FA08F766
:100A10002743CCF80878DAF800405746D1F804C0EC
:100A20009C435FEACC2C00D51C433C60DBF80040C3
:100A30005F46D1F804C09C435FEA8C2C00D51C4370
:100A40003C60DEF800407746D1F804C09C435FEA82
:100A50008C3C00D51C433C60084F083F3C68D1F8F3
:100A600004C09C435FEACC3C00D51C433C60521C54
:100A7000102AFFF42FAFBDE8F88F0000083C0140BA
:100A800044380240003001400000024000040240AF
:100A900000080240000C0240001002400014024016
:100AA00000180240001C02400AB18161704709042D
:100AB000FBE7000001488068704700003800002014
:100AC0000248816802781144816070473800002034
:100AD0000B4810B5016841F400710160016841F4F0
:100AE00080610160016841F480710160032000F0C1
:100AF0009FF80F2000F006F800F050F8002010BD1D
:100B0000003C024030B505461F4887B0002401680C
:100B100041F020010160006806A900F0200000906B
:100B200001A800F031F90498A8B100F04DF9400097
:100B30001649174AB0FBF1F11648491E026040F20F
:100B4000E732C0E90324C0E90114846100F08EFBA0
:100B5000040003D015E000F037F9E9E70D4800F094
:100B6000D1FB04000DD1372000F034F8102D07D24E
:100B700000222946372000F03BF80748056000E0D6
:100B8000012407B0204630BD4038024040420F00EB
:100B900000140040440A00203C0000200C4882B0B1
:100BA000016841F480410160006800F480400090D9
:100BB0000748001F016841F0805101600068002271
:100BC00000F0805000900F21901E02B000F010B88D
:100BD00044380240002809DB00F01F020121914047
:100BE0004009800000F1E020C0F8001170470000CB
:100BF000F0B40E4B1B680C46C3F30223C3F1070588
:100C0000042D00D90425191D072901D2002300E075
:100C1000DB1E012606FA05F1491E214099409E403F
:100C2000761E16403143F0BC01F02EBC0CED00E006
:100C3000064900F0070208684FF6FF03184040EA33
:100C40000220034A10430860704700000CED00E0EA
:100C50000000FA052DE9F0470E46050065D0DFF8E3
:100C60001481D8F80000F7B200F00700B04207D2B4
:100C700088F80070D8F8000000F00700B04254D1A6
:100C800028683D4C810712D5400703D5206840F401
:100C9000E05020602878000703D5206840F46040C9
:100CA00020602068A96820F0F000084320602878C0
:100CB000C0072DD0304968680839012812D00228B1
:100CC00013D0032811D00968890700292DDA21687B
:100CD00021F0030101432160FFF7ECFE814641F260
:100CE000883A0EE009688903EFE709688901ECE7B3
:100CF000FFF7E0FEA0EB0901514502D90320BDE852
:100D0000F0872068696800F00C00B0EB810FEFD12C
:100D1000D8F80010404601F00701B14207D907702A
:100D2000006800F00700B04201D00120E7E7287812
:100D3000400705D52068E96820F4E05008432060AA
:100D40002878000706D52068296920F4604040EA29
:100D5000C100206000F058F82168084AC1F303116F
:100D6000515CC8400649086006480068FFF7CAFEA3
:100D70000020C4E7003C02400838024060490008F7
:100D8000440000203C0000200F2202600C4A13683F
:100D900003F003034360136803F0F00383601368F8
:100DA00003F4E053C36012684FF4E05303EAD20245
:100DB00002610448006800F0070008607047000006
:100DC00008380240003C02400448054900680968B0
:100DD000044AC1F38221515CC8407047440000209E
:100DE000083802407049000804480549006809684D
:100DF000044AC1F34231515CC840704744000020AE
:100E00000838024070490008154810B5006810F015
:100E10000C02144813D01449042A0FD0082A0ED10A
:100E20000F4C241F2268236802F03F025B0207D5A3
:100E30002068C0F38810A0FB010106E0084610BD41
:100E40002168C1F38811A1FB00010023FFF718FA04
:100E50002168C1F30141491C4900B0FBF1F010BD0C
:100E6000083802400024F40040787D012DE9F84F55
:100E700004006ED02078DFF84C93C007A9F1040578
:100E80004AD009F104000168C1F38101012908D0A9
:100E90000068C0F3810002280AD1D9F8000040029E
:100EA00006D52868800337D560680028E1D033E094
:100EB0006068B0F5803F10D0B0F5A02F286810D042
:100EC00020F480302860286820F480202860606842
:100ED000A8B1FFF7EFFD06460DE0286840F480302A
:100EE000F4E740F480202860F7E700BFFFF7E2FD59
:100EF000801B642873D828688003F7D50CE0FFF7BF
:100F0000D9FD064605E000BFFFF7D4FD801B64282D
:100F1000F0D828688003F7D42078DFF8AC82800707
:100F20004FF0000A3ED5A748001D016811F00C0FD4
:100F300008D00068C0F3810002280BD1D9F8000066
:100F4000400207D42868800716D5E068012800D140
:100F500012E033E1E068B8B10120C8F80000FFF703
:100F6000A9FD064605E000BFFFF7A4FD801B02288F
:100F7000C0D828688007F7D52868216920F0F800D4
:100F800040EAC10028600DE0C8F800A0FFF792FD1C
:100F9000064604E0FFF78EFD801B02281FD8286854
:100FA0008007F7D42078000722D5864F87486169EB
:100FB000703771B101210160FFF77CFD064604E046
:100FC000FFF778FD801B022809D838688007F7D51D
:100FD0000EE0C0F800A0FFF76DFD064605E082E0D8
:100FE000FFF768FD801B02287DD838688007F7D49A
:100FF0002078400768D5DFF8CCB100270BF13C0B17
:10100000DBF80000C0000BD4DBF8001041F0805189
:10101000CBF80010DBF80000012700F080500090B2
:101020006B4E3068C00510D4306840F4807030607A
:10103000FFF740FD009005E0FFF73CFD0099401AE6
:10104000022850D83068C005F6D55E4EA0686C36D0
:1010500001280FD00528306810D020F00100306042
:10106000306820F004003060A068B8B1FFF722FDBE
:1010700000900FE0306840F00100F4E740F0040019
:101080003060F7E7FFF716FD0099411A41F288300A
:10109000814266D830688007F4D50EE0FFF70AFD7C
:1010A000009007E0FFF706FD0099411A41F28830F1
:1010B000814256D830688007F4D42FB1DBF8001095
:1010C00021F08051CBF80010A069C8B33D49091D3B
:1010D0000968C1F3810102294AD00228504607D08D
:1010E000C8F8600000E03CE0FFF7E4FC04463BE0A9
:1010F0004746C8F86000FFF7DDFC064605E000BF84
:10110000FFF7D8FC801B02282BD828688001F7D471
:10111000D4E907010843A16A2E4A490802EB0141BC
:10112000626A41EA8211084394F82C1040EA016196
:10113000C9F8001001203866FFF7BCFC044606E041
:101140003EE000BFFFF7B6FC001B022809D8286864
:101150008001F7D534E000BFFFF7ACFC001B02288C
:1011600002D90320BDE8F88F28688001F4D427E075
:101170000128F7D0D9F80000E26900F4800191421B
:101180001CD1226A00F03F01914217D147F6C0718D
:10119000626A0140B1EB821F10D1A26A4FF0FF33A7
:1011A00000F4403103EB5202B1EB024F06D194F848
:1011B0002C1000F07060B0EB016F01D00120D1E77E
:1011C0000020CFE70438024000004742800E47422B
:1011D000007000400000FFFF7047704770B590F846
:1011E0003C20012A32D0012480F83C40022280F8C1
:1011F0003D2003685A689D6822F070060A683243F1
:101200005A60134B02689A4214D0B2F1804F11D049
:10121000104B9A420ED0104B9A420BD00F4B9A4271
:1012200008D00F4B9A4205D00E4B9A4202D00E4B7B
:101230009A4204D1496825F080031943916080F8EF
:101240003D40002180F83C10084670BD022070BD72
:10125000000001400004004000080040000C004075
:1012600000040140004001400018004010B5040097
:1012700003D094F83D0010B107E0012010BD00201C
:1012800084F83C00204600F01FF8022084F83D005E
:10129000211D206800F0EEFD012084F8460084F84E
:1012A0003E0084F83F0084F8400084F8410084F850
:1012B000420084F8430084F8440084F8450084F830
:1012C0003D00002010BD000008B500680B498842B1
:1012D00012D10B48016841F0100101600068002242
:1012E00000F01000009005213620FFF781FCBDE8DA
:1012F00008403620FFF76EBC08BD0000001000401B
:101300004038024090F83D10012901D0012070477B
:10131000022180F83D100168CA6842F00102CA60EB
:1013200000681149884214D0B0F1804F11D00F49A4
:1013300088420ED00E4988420BD00E49884208D010
:101340000D49884205D00D49884202D00C49884297
:1013500004D1816801F00701062903D0016841F03A
:1013600001010160002070470000014000040040BE
:1013700000080040000C0040000401400040014013
:101380000018004070472DE9F04104460068C66827
:1013900005694FF00007A90713D5B10711D5F91E4C
:1013A000016101202077206880698007204602D0F3
:1013B000FFF7E8FF04E000F07EF8204600F07CF83C
:1013C0002777680716D5700714D521686FF00400D9
:1013D0000861022020772068806910F4407F204651
:1013E00002D0FFF7CFFF04E000F065F8204600F0E0
:1013F00063F82777280715D5300713D521686FF0D4
:1014000008000861042020772068C0698007204612
:1014100002D0FFF7B7FF04E000F04DF8204600F0DF
:101420004BF82777E80616D5F00614D521686FF03B
:1014300010000861082020772068C06910F4407F00
:10144000204602D0FFF79EFF04E000F034F820466B
:1014500000F032F82777E80708D0F00706D02168B7
:101460006FF001000861204600F028F8280608D532
:10147000300606D521686FF0800008612046FFF72E
:10148000ABFE680608D5700606D521686FF04000EF
:101490000861204600F01CF8A8060AD5B00608D559
:1014A00021686FF0200008612046BDE8F041FFF799
:1014B00094BEBDE8F08170477047000000680349A2
:1014C000884201D1FFF7FCBA7047000000140040C9
:1014D000704738B5044690F84200202801D0022019
:1014E00038BD51B14AB1012020630020606320461D
:1014F00000F0CEFE216B012901D0012038BD21680A
:101500000A684968009121680C3151E8002F42F0C7
:10151000100241E80023002BF5D138BD18B5034671
:1015200090F84200202801D0022018BD61B15AB1C4
:101530000120186300205863184600F0F9FE0028C7
:10154000F3D1196B012901D0012018BD19680A686F
:101550004968009119680C3151E8002F42F01002DF
:1015600041E80024002CF5D118BD00000B4A10B54D
:1015700090420BD10A460A49084800F05BFABDE8E0
:101580001040402206490548FFF7C8BF054A90426F
:1015900003D1BDE81040FEF77BBF10BD5409002009
:1015A000CC0800209C090020FEF762BFF8B5016856
:1015B00004460868CA684B6910F00F0F4FF0000529
:1015C00059D003F0010602F49077374365D0C10784
:1015D00005D0D10503D5616C41F00101616441077B
:1015E00005D5D90703D0616C41F002016164810720
:1015F00005D5D90703D0616C41F00401616401078E
:1016000007D502F02001314303D0616C41F008019D
:101610006164616C00293AD0800604D5900602D539
:10162000204600F04EFD20684069616CC0F38010D8
:10163000090700D460B3204600F00EFD2068406921
:10164000400621D52068143050E8001F21F04001E9
:1016500040E80012002AF5D1E06BA8B1724901659B
:10166000E06BFEF786FF002811D0E06B016D01B042
:10167000BDE8F040084783060FD593060DD52046F8
:10168000BDE8F84000F01DBD2046FFF78DFFF8BD16
:101690002046FFF789FF6564F8BD266B2023012EE5
:1016A0007ED1C6067CD5D6067AD5086848680090F3
:1016B00048694FF0020640064DD5E26B106840685D
:1016C0004FF480770004000C3AD0A18D814237D9C5
:1016D000E085D069B8422DD020680C3050E8001F5A
:1016E00021F4807140E80012002AF5D120681430FE
:1016F00050E8001F21F0010140E80012002AF5D156
:101700002068143050E8001F21F0400140E800122A
:10171000002AF5D184F84230256320680C3050E867
:10172000001F21F0100140E80012002AF5D1E06B03
:10173000FEF7D6FE6663A08DE18D401A81B206E009
:10174000A18D8142A8D1D069B842A5D16663204657
:10175000FFF70CFFF8BDA08DE18D401A81B2E08D3E
:101760000028F7D00029F5D020680C3050E8002F71
:1017700022F4907240E80027002FF5D12068143041
:1017800050E8002F22F0010240E80027002FF5D199
:1017900084F84230256320680C3050E8002F00E0C8
:1017A00006E022F0100240E80023002BF3D1CDE741
:1017B00005062BD5150629D594F841002128C9D155
:1017C000A068B0F5805F01D12069B0B1206A411CEA
:1017D0002162216800784860E08C401E0004000C03
:1017E000E084B7D12068C16821F08001C160206821
:1017F000C16841F04001C160F8BD206A0088C0F3B3
:1018000008004860206A801C2062E5E74006F3D5A6
:101810005006F1D5CA68204622F04002CA6084F81A
:10182000413000F020F9F8BD5D1F000870B50400DC
:1018300004D094F84100002510B106E0012070BDED
:1018400084F84050204600F023F8242084F841001A
:101850002068C16821F40051C160204600F092FC6C
:101860002068016921F4904101612068416921F0FB
:101870002A0141612068C16841F40051C16065647A
:10188000202084F8410084F842006563002070BD88
:10189000F0B587B0064614216846FEF73BFD354F8C
:1018A000306800253449022203230724B84221D19D
:1018B00031481430066846F010060660006800F0F3
:1018C00010000590086840F001000860086869464B
:1018D00000F00100059058028DE82500CDE90334A1
:1018E0002648FEF7E9FF002207212520FFF780F9AF
:1018F00025203BE0224FB8423AD11F4810300768FC
:1019000047F480270760006800F48020059008688D
:1019100040F0020008600868694600F00200059087
:101920004FF440608DE82500CDE903341548FEF7FB
:10193000C3FF164C144820604FF00060C4E9010555
:101940004014C4E903506561A561E5612562204644
:101950006562FEF7F1FE08B1FEF7AFFDF463002209
:1019600005212720A663FFF743F92720FFF732F967
:1019700007B0F0BD001001403038024000000240C6
:10198000004800400004024028600240E4090020B2
:10199000704770472DE9F843044690F84100984697
:1019A00016460D46202802D00220BDE8F88385B1F6
:1019B0007EB100206064212084F84100FFF77AF8AE
:1019C000A6848146E684A0682027B0F5805F02D017
:1019D00003E00120E9E7206910B12E4600250EE062
:1019E00000260CE08021204600F0BDFCA8B9C6B15D
:1019F00016F8010B21684860E08C401EE084E08C02
:101A00004B464FF00002CDF800800028EAD14FF09D
:101A10004001204600F0A7FC40B184F8417003204B
:101A2000C3E735F8020BC0F30800E3E784F8417020
:101A30000020BAE790F84130202B01D002207047F7
:101A400079B172B101628284C28400214164212192
:101A500080F841100068C16841F08001C160002039
:101A60007047012070477047FEE7000040F6B83429
:101A70004FF47A7501212246084601F02DF803A0A3
:101A800000F0F2FC284600F0EFFEF3E7464C414739
:101A900031204953204F4B0D0A000000094808B57A
:101AA000016841F4001101600068002200F4001098
:101AB000009005210C20FFF79BF8BDE808400C20A2
:101AC000FFF788B83038024010B5204800F04AFFD0
:101AD0001F4C1E4A012160611032084600F076FF5B
:101AE0001A4AA06120320021022000F06FFF174B3C
:101AF000E061103B00220121164801F07FF84FF40D
:101B00007A71206101F0B6F8104A0221283A1020BB
:101B100000F0FCFE0D4AE060943A00210E4801F00E
:101B200027F80A4A2060703A00210C4801F020F89A
:101B3000064A60604C3A0021094801F019F8A0609B
:101B40000248303000F09DFE206210BD18490008A8
:101B500014000020BB0300086D1A0008D1350008EE
:101B6000691D00082DE9F04786B014216846FEF78C
:101B7000D1FB48480024016841F010010160016870
:101B800001F010010591016841F004010160016854
:101B900001F004010591016841F020010160016834
:101BA00001F020010591016841F0800101600168A8
:101BB00001F080010591016841F0010101600168B7
:101BC00001F001010591016841F002010160016825
:101BD00001F002010591016841F0400101600068D7
:101BE0002D4E00F040000590012204213046FEF702
:101BF0005BFFDFF8A8904FF4E077012239464846B2
:101C0000FEF752FFDFF898A04FF40048012241464A
:101C10005046FEF749FF042000900125CDE901540C
:101C2000694630460394FEF747FE68034FF4881672
:101C3000CDE90006694602941A48FEF73DFE00977A
:101C4000CDE90154694648460394FEF735FE0095F8
:101C5000CDE9016469461448FEF72EFECDF80080F8
:101C6000CDE90154694650460394FEF725FE06214E
:101C700000220846FEF7BCFF0620FEF7ABFF00225D
:101C800005212820FEF7B4FF2820FEF7A3FF06B0A9
:101C9000BDE8F087303802400010024000140240D6
:101CA0000018024000080240000002401CB5002459
:101CB0000F4800940D49019401605321C0E90114BB
:101CC00040F2E731C16080218161FFF7CFFA08B1AE
:101CD000FEF7F3FB0094694605480194FFF77EFA8E
:101CE000002801D0FEF7E9FB1CBD000000100040F9
:101CF0000C0900200C4810B50A4901604FF4E1318D
:101D00004160002181600C22C160C0E90412816140
:101D1000C161FFF78BFD002803D0BDE81040FEF73E
:101D2000CCBB10BD00100140540900200C4810B578
:101D30000A4901604FF4E1314160002181600C22C9
:101D4000C160C0E904128161C161FFF76FFD002825
:101D500003D0BDE81040FEF7B0BB10BD0048004006
:101D60009C090020FEE7FEE7064D4FF47A7406A0BA
:101D700000F07AFB0121286800F074FE204600F094
:101D800073FDF4E714000020464C414732204953CC
:101D9000204F4B0D0A00000010B54FF0E020006905
:101DA00002F042FB012803D0BDE8104001F008BF5B
:101DB00010BD000030B593B030216846FEF7AAFA96
:101DC00014210CA8FEF7A6FA1E480025016841F070
:101DD00080510160006800F0805011901A4801683D
:101DE00041F4804101600068022400F480401190B9
:101DF00001200090000401908001CDE906401920E7
:101E000008904FF4A870CDE9090404200B906846AF
:101E1000FFF72CF808B172B6FEE70CA90F2081E895
:101E200031004FF4A0500F904FF4805010900521D6
:101E30000CA8FEF70FFF002801D072B6FEE713B022
:101E400030BD000040380240007000400248016888
:101E500041F470010160704788ED00E00148FFF730
:101E600092BA00000C0900200148FFF78CBA00006C
:101E7000440A0020F0B50268274B284D284E294F10
:101E8000294C4FF0804C984209D0604507D0A842B9
:101E900005D0B04203D0B84201D0A04204D122F014
:101EA000700E4A6842EA0E0298421BD0604519D073
:101EB000A84217D0B04215D0B84213D0A04211D0DA
:101EC0001A4DA8420ED01A4DA8420BD0194DA84267
:101ED00008D0194DA84205D0184DA84202D0184D7F
:101EE000A84203D122F44075CA682A434D6922F002
:101EF00080022A438D68C5620D688562984201D0D0
:101F0000A04201D109690163016841F00401016047
:101F1000012141610260F0BD000001400004004069
:101F200000080040000C0040000401400040014057
:101F3000004401400048014000180040001C0040DF
:101F40000020004010B501F01BFB002805D0D0E9AF
:101F50000021BDE810400846104710BD10B5806B49
:101F60000021C185FFF720FB10BD70B5846B206890
:101F7000406994F84110C0F3C0100025212904D114
:101F800018B1E584204600F08EF82068406994F886
:101F90004210C0F38010222904D118B1E5852046F3
:101FA00000F05AF8606C40F0100060642046FFF7C3
:101FB000FBFA70BD10B50146806B096809684FF0E7
:101FC0000002C9052ED4C28501680C3151E8003FDA
:101FD00023F4807341E80034002CF5D101681431FA
:101FE00051E8003F23F0010341E80034002CF5D113
:101FF0000168143151E8003F23F0400341E8003408
:10200000002CF5D1202180F84210016B012909D163
:1020100001680C3151E8003F23F0100341E800341F
:10202000002CF5D14263016B012902D0FFF7B0FC0F
:1020300010BD818DFFF79AFA10BD10B5806B01219C
:102040004163016B012902D0FFF7A3FC10BD818D14
:102050004908FFF78BFA10BD01680C3151E8002FD9
:1020600022F4907241E80023002BF5D1016814316D
:1020700051E8002F22F0010241E80023002BF5D1A6
:10208000016B012909D101680C3151E8002F22F0C0
:10209000100241E80023002BF5D1202180F84210E6
:1020A00000210163704701680C3151E8002F22F0D4
:1020B000C00241E80023002BF5D1202180F8411017
:1020C000704708B590F84210222901D0022008BDBF
:1020D00082684FF480539A4201D1016921B1816A2B
:1020E0009A421BD04AB10AE00268816A5268C2F380
:1020F00008020A80816A891C08E0026972B10268DC
:10210000526802F07F020A70816A491C8162C18DA7
:10211000491E0904090CC18503D01BE002685268FE
:10212000F1E70168CA6822F02002CA600168CA6843
:1021300022F48072CA6001684A6922F001024A6191
:10214000202180F8421000214163026B012A03D054
:10215000FFF71EFC002008BD016301680C3151E847
:10216000002F22F0100241E80023002BF5D1016876
:102170000A68D20602D50A6849680091818DFFF786
:10218000F5F9E7E770B5044600680169E26821F4F3
:102190004051114301612169A068E2690843616906
:1021A000114308432168CA6849F20C639A43024309
:1021B000CA6020684169A26921F4407111434161FC
:1021C00031492068884202D03049884202D1FEF766
:1021D0000BFE01E0FEF7F8FDE269002319216425FA
:1021E0003226B2F5004F626828D0A0FB0101930FA0
:1021F0009200FEF745F80146B0FBF5F06FF01802CB
:10220000504301EB800006EB0010B0FBF5F000F04E
:10221000F002B1FBF5F002EB0012B1FBF5F06FF04C
:102220001803584301EB800006EB0010B0FBF5F0FB
:1022300000F00F0021681044886070BDA0FB010110
:1022400092185B41FEF71CF80146B0FBF5F0020165
:10225000B1FBF5F06FF01803584301EB800006EB7B
:10226000C000B0FBF5F000F0F80002EB4002B1FB5B
:10227000F5F0584301EB800006EBC000B0FBF5F031
:1022800000F00700D6E700000010014000140140F4
:1022900038B581620446828500201346606422229C
:1022A00084F84220E56B1F4AEA63E56B1E4A2A6404
:1022B000E56B1E4AEA64E26B10650A462168E06B32
:1022C000091DFEF7A3FA30B110206064202084F8C5
:1022D0004200012038BD20680168406800902069F4
:1022E00048B120680C3050E8001F41F4807140E88C
:1022F0000012002AF5D12068143050E8001F41F088
:10230000010140E80012002AF5D12068143050E89D
:10231000001F41F0400140E80012002AF5D10020E2
:1023200038BD0000B51F00083B2000086B1F0008E7
:1023300081628285C28500214164222180F8421099
:10234000016921B10168CA6842F48072CA600168FB
:102350004A6942F001024A610068C16841F0200107
:10236000C160002070472DE9F843984617460D4696
:102370000446089E24E0701C22D0FEF79BFBA0EBD5
:102380000800B0421AD8CEB12068C168490717D5F5
:10239000802D15D0402D13D00168C94309070FD4F3
:1023A00001680025406800902046FFF755FE082090
:1023B000606484F840500120BDE8F8830320FBE707
:1023C0002068006835EA000004D00020B842D2D06E
:1023D0000020F1E70120F9E70148FFF7E7B8000026
:1023E000540900200148FFF7E1B800009C090020D3
:1023F000FEE70000194910B58A881044B0F5006F57
:1024000001D3A0F50060888088884A889042488877
:1024100009D30028888802D0C0F5006006E0A0F249
:10242000FF70404202E08A88801A401E0204120CAB
:1024300008D00B48898801440A48FFF74AF820B1C0
:10244000002010BD01204870FAE70648C06B006804
:10245000016821F008010160012010BD0400002086
:10246000CC0000209C0900200FB4054B10B503A937
:10247000044A029800F028F810BC5DF814FB000034
:102480000D280008C80000200907090E002804DBF9
:1024900000F1E02080F80014704700F00F0000F118
:1024A000E02080F8141D704702E008C8121F08C120
:1024B000002AFAD170477047002001E001C1121FC5
:1024C000002AFBD1704700002DE9FF4F8BB08846F2
:1024D0000546002606E025280BD0DDE90D129047C1
:1024E0006D1C761C28780028F5D10FB03046BDE869
:1024F000F08F0024A146A2460122AE4900E0044329
:1025000015F8013F203B02FA03F00842F7D1287882
:102510002A2810D06FF02F022878A0F13001092965
:1025200015D809EB890102EB410144F0020400EBEC
:1025300001096D1CF0E758F8041B5FEA010903D597
:1025400044F40054C9F1000944F002046D1C2878D9
:102550002E2817D115F8010F44F004042A280ED0B4
:102560006FF02F022878A0F1300109290AD80AEB70
:102570008A0102EB410100EB010A6D1CF2E758F8F9
:1025800004AB6D1C28786C280FD006DC4C2817D0C3
:1025900068280DD06A2814D104E0742810D07A2855
:1025A0000FD10DE044F400140AE044F4801401E07B
:1025B00044F440146978814202D104F580146D1C02
:1025C0006D1C2878692865D006DC00288DD063282A
:1025D00027D0642806D15DE06E2808D073282AD061
:1025E000752877D0DDE90D129047761CE0E0C4F342
:1025F0000250022809D003280DD0D8F80010042872
:102600000DD00E6008F10408D2E0D8F80010F217DF
:10261000C1E90062F6E7D8F800100E80F2E70E700C
:10262000F0E718F8041B8DF8001000208DF8010069
:10263000EB46012003E058F804BB4FF0FF30610780
:102640004FF0000701D40AE07F1C57450DDA87429E
:10265000FADB1BF807100029F6D106E07F1C874241
:10266000FCDB1BF807100029F8D1DDE90D23A9EBED
:1026700007008146214600F0B1F83044C61904E055
:10268000DDE90D121BF8010B90477F1EF8D22146A1
:10269000484688E058F8040BC4F302514FF00A0B87
:1026A000032900D100B2042900D140B2002802DA87
:1026B00040422D2102E0210505D52B218DF8241063
:1026C000012104E006E0E10710D02021F6E708AF81
:1026D000089113E058F8040BC4F302514FF00A0BB1
:1026E000032900D180B2042900D1C0B20021EEE755
:1026F0005946FDF71AFE303107F8011D0028F7D1C1
:10270000ADEB070000F1200B600702D524F4803404
:1027100001E04FF0010ADA4502DDAAEB0B0000E010
:102720000020824600EB0B0108980144A9EB010050
:102730000A90E00306D4DDE90D2321460A9800F053
:102740004DF806444FF0000908E009A911F8090006
:10275000DDE90D12904709F10109761C08998945B8
:10276000F3DBE0030CD5DDE90D2321460A9800F0E8
:1027700035F8064404E0DDE90D1230209047761C60
:10278000BAF10001AAF1010AF5DC05E0DDE90D125C
:1027900017F8010B9047761CBBF10001ABF1010B60
:1027A000F4DC0A982146DDE90D2300F005F8064423
:1027B0006D1C97E6092801002DE9F041044600252B
:1027C0001E461746880404D405E039462020B04749
:1027D0006D1C641EF9D52846BDE8F0812DE9F04155
:1027E000044600251E469046C80301D5302700E068
:1027F0002027880404D505E041463846B0476D1CC3
:10280000641EF9D52846BDE8F081000013B54FF0ED
:10281000FF33012269460248FFF7BCF800981CBD4F
:1028200054090020FEF754F9FFF7C4FAFFF79AF9AC
:10283000FFF734F9FFF73AFAFFF778FAFFF75AFA99
:10284000402207490748FEF769FE0020FFF7D2FD46
:1028500000F02EF8FFF738F900F03CF8FEE7000032
:10286000CC0800205409002010B5EFF3058111B108
:102870006FF0050403E0002408B101F01DF82046C4
:1028800010BD10B54FF00001EFF305826AB948B1F1
:10289000D0E902202AB1202807D3104601F000F920
:1028A00002E010B901F0EEF80146084610BD000044
:1028B000EFF3058010B16FF0050070470448016820
:1028C00011B14FF0FF3070470121016000207047C7
:1028D0009800002010B5EFF3058010B16FF00500EF
:1028E00010BD08480168012902D04FF0FF3010BD2B
:1028F000054A002182F8141D0221016001F044F80C
:10290000002010BD980000200BE000E0F8B5144650
:102910004FF00005EFF3058212BB08B301B3A4B179
:10292000D4E9023263B1502A1AD32269C2B167696D
:1029300000FB01F6B74213D3009501F0CDF907E093
:1029400072B9226962B9626952B9002201F0A3F931
:10295000050005D00CB1216800E0002100F04AFF1D
:102960002846F8BD70B505464FF00004EFF305802A
:1029700050BB0DB1686800E00020C10701D00126FE
:1029800000E0002600071FD46DB1D5E9021021B187
:10299000502819D31EB1042002E020B114E0012018
:1029A00001F06CF905E00EB1042000E0012001F017
:1029B0005AF9040008D00DB1296800E0002100F0A8
:1029C00019FF0EB144F00104204670BDF8B514465D
:1029D00003460E464FF00005EFF3058098BB93B316
:1029E0009E423DD84CB1A0680028E06803D0502832
:1029F00036D3012002E008B132E00020012B05D0DF
:102A000010B31846A26801F00EF920E040B103208F
:102A10000090002211460120A36801F05DF904E056
:102A200003220021012001F036F9050018D086B1FB
:102A300000231A46194601F0C7F9012809D0284693
:102A400000F0ECFE00250BE0184601F0CFF8050081
:102A500006D00CB1216800E00021284600F0CAFE33
:102A60002846F8BD3EB5040001D0002903DA6FF016
:102A7000030001902BE04FF0FF300190EFF3058051
:102A8000D0B1002502A800902B46012202952046D5
:102A900001F048FC002201AB11462046009501F0F0
:102AA00041FC029898B10B494FF080500860BFF389
:102AB0004F8FBFF36F8F0AE000230122204601F001
:102AC000C1FB002201AB1146204601F0BBFB01987F
:102AD0003EBD000004ED00E02DE9F84F89460546B3
:102AE0004FEA0206EFF3058010B16FF005041EE017
:102AF000002D02DA6FF0030419E05FEA897002D555
:102B00004FF0000800E0A8460024924601F09AFC2D
:102B10008346E71E53466A464146002001F0FCFC0E
:102B2000012807D00EB36FF001040028F2D120462F
:102B3000BDE8F88F00982C4004435FEAC9700BD0C1
:102B400035EA0400F3D056B101F07CFCA0EB0B0099
:102B5000504506D9002006E02542E8D1F3E73C467F
:102B6000E5E7AAEB00008246D4E73C46DDE700003B
:102B70002DE9FF414FEA01034FF00005EFF3058116
:102B8000039549BB40B38027182100244AB3166837
:102B900006B1344696691EB13146761E382E02D2F1
:102BA0001679F60703D0002004B0BDE8F08156691D
:102BB00006B1B708D2F808C0BCF1000F0DD0D56837
:102BC0005C2D18D312693AB136B18DE806103A4639
:102BD000214601F00CFB03900DE0D6685EB9126946
:102BE0004AB903AACDE90012BAB2214601F0D2FADD
:102BF000012800D003950398D6E700002DE9FC4793
:102C00001C469046894607464FF00006EFF30580C4
:102C100058BB57B3082000F045FC050025D0C5E996
:102C20000078B9F1000F12D00122114B002094B1AD
:102C3000216801B10846A16859B1E4682C2C11D370
:102C4000CDE900312B46012101F0A0FD08E0002272
:102C5000EBE7E16831B900932B46012101F07CFDDF
:102C6000060002D1284600F057FD3046BDE8FC873B
:102C7000451F000808B5EFF3058212B16FF005009B
:102C800008BD58B10022134600920A46042101F003
:102C9000C5FD012805D06FF0020008BD6FF00300EC
:102CA00008BD002008BD00002DE9F041134C0F467F
:102CB0000546E6682068001D00F09EFC681C07D1F0
:102CC00037B12168BDE8F0410D48091D00F0E4BCB2
:102CD00020683544B5424560216805D2A06BBDE847
:102CE000F041091D00F0C0BC606B091D00F0BCFC88
:102CF000A06A854200D2A562BDE8F08148000020AC
:102D00007C0F00202DE9F041054600F0D1FC2D4C50
:102D1000A068401CA06020682B4F10B1606930B3E0
:102D20002BE02560A068012827D1002606EB86004D
:102D300007EB800000F08AFC761C382EF6D323487F
:102D400000F084FC2148143000F080FC1F4828303B
:102D500000F07CFC1D483C3000F078FC1B485030F3
:102D600000F074FC194860631430A06305E020682B
:102D7000E96AC06A884200D82560606A401C6062C7
:102D80006864E86A2169884200D9206100EB80000C
:102D900007EB8000291D00F07FFC00F0A9FC6069B2
:102DA00000280CD02068E96AC06A884207D2084926
:102DB0004FF080500860BFF34F8FBFF36F8FBDE8B7
:102DC000F081000048000020CC0A00202C0F0020D9
:102DD00004ED00E038B500F06BFC104C2068C8B979
:102DE0000F4800F033FC0E48143000F02FFC0C4864
:102DF000E060143020610A4B0020F03B009003F1AA
:102E0000500210210A2000F067FF206010B105A1D8
:102E100000F0F0FCBDE8384000F06ABC84000020FF
:102E200080100020546D72510000000030B4026C1C
:102E30000B46002A0BD0C1681144C1608468A142CE
:102E400001D30168C16030BC1846FDF74ABA30BCF6
:102E500070472DE9F041856B174604460026026C49
:102E600082B1C7B1E068FDF73CFAE168206C091A4D
:102E7000E1602268914202D2A168081AE060022F44
:102E800016D017E02068A8B9A06801F08BFB0646B1
:102E90000020A0600EE06068FDF723FA216C6068F6
:102EA00008446060A168884204D32068606001E043
:102EB00005B16D1E6D1CA5633046BDE8F08110B5EF
:102EC000044690F8590058B101280CD002280FD0C0
:102ED000502080F31188BFF34F8FBFF36F8FFEE751
:102EE000206B00F019FC2046BDE8104000F014BC37
:102EF00010BD000010484FF47051420706D0C01DAD
:102F00000D4920F00700411AC1F570510B4A00230A
:102F10000144C2E900030839183A21F007011160A1
:102F20004B600B600B1AC0E9001393604FF0004038
:102F3000536050617047000060170020B40000200B
:102F4000144E154CA6F29C474FF08058DFF84C9079
:102F500012E000BF00F0ACFBF068C568281D00F06F
:102F60004BFBA068401EA0606068401E606000F0DF
:102F7000BFFB2846FFF7A3FF60680028EAD1386846
:102F80000128F9D9C9F80080BFF34F8FBFF36F8FC5
:102F9000F2E70000680F00204800002004ED00E088
:102FA000002807D00021816001600B460A46C160FD
:102FB00000F00ABF7047000070B51D46049C51B177
:102FC000C4F80020C4E90F010121204600F0B8FE3A
:102FD00084F84C5070BD2460F4E700002DE9F05FE8
:102FE0008846DDE90B941546834691009A460A9E71
:102FF000A522206BFDF787F96FF00301206B01EB31
:103000008501084420F00707780707D0502080F397
:103010001188BFF34F8FBFF36F8FFEE70025B8F124
:10302000000F0FD05FF00000221818F8001082F88F
:10303000341018F8001011B1401C1028F4D384F893
:10304000435001E084F83450382E00D33726E6622E
:10305000C4E91365201D00F004FB04F1180000F022
:1030600000FB2461C6F138006462A061656584F8E4
:10307000585052465946384600F094FA2060B9F14B
:10308000000F01D0C9F80040BDE8F09F2DE9F047DE
:103090001E46DDE9089417460D00804615D0002C29
:1030A00011D0FFF797FE04F11801C4F8008081E801
:1030B0006002201D00F0D5FA002F04D014F8280F6C
:1030C00040F004002070BDE8F087502080F31188A4
:1030D000BFF34F8FBFF36F8FFEE7000030B511498C
:1030E00000E011460A688242FBD34B685C188442B8
:1030F00003D1406818444860084643681C1894424D
:1031000009D1084C183C2468A24209D052681A44DC
:1031100042600A6812680260814200D0086030BDD7
:103120000460F9E7B400002070B5002441600B4D45
:103130000061914206D8D11A8269914206D2011DDE
:10314000286907E09A4203D2994201D3012403E09F
:10315000011DE86800F088FA204670BD8400002058
:1031600010B5044600F0A4FAA06B28B15FF000048B
:1031700000F0BEFA204610BD0124F9E730B589B051
:103180003C4D6EE00498002806DADDE90601059A58
:1031900090470498002864DB069C606910B1201DEC
:1031A00000F02AFA03A800F0D7F8024604980A288B
:1031B00057D2DFE800F00505052D334A05052D330C
:1031C00094F8280040F0010084F828000599A069CF
:1031D000059B01442046FFF7A7FF68B3216A2046FC
:1031E000884794F8280040073BD5002000900598B8
:1031F000A169002342181946204601F00FFBD8B9F7
:10320000502080F31188BFF34F8FBFF36F8FFEE71D
:1032100014F8280F20F00100207022E094F8280014
:1032200040F0010084F828000598A06128B18118B9
:1032300013462046FFF778FF13E0502080F31188F3
:10324000BFF34F8FBFF36F8FFEE794F8280081071D
:1032500003D4204600F060FA03E020F0010084F877
:103260002800002204A9286800F0BEFE002889D1A9
:1032700009B030BD840000202DE9FC410F46054611
:1032800000F0C6FB01A800F067F80446019818B1E9
:1032900001F000FABDE8FC81254EAFB1306900684D
:1032A000D0B30027291B3A46306800F0E3FA01F05A
:1032B000F1F90028EED11F494FF080500860BFF3AC
:1032C0004F8FBFF36F8FE5E7A542EBD801F0E2F92E
:1032D000F0682746C068C468201D00F08DF994F896
:1032E0002800410719D5A0692B4641193A462046C6
:1032F000FFF71AFFA8B100200346014600902A46B6
:10330000204601F08BFA60B9502080F31188BFF39A
:103310004F8FBFF36F8FFEE707E020F0010084F8C6
:103320002800216A20468847B4E70127BAE7000051
:103330008400002004ED00E00648416B096829B1D3
:10334000416BC968C9684968816270474FF0FF31B5
:10335000FAE700004800002070B5054601F072F859
:10336000064E0446B068844203D200F009F80120FA
:1033700000E0002028602046B46070BD840000207A
:10338000F8B5194D20E0C068C4680668201D00F03B
:1033900033F9216A2046884794F82800400713D55E
:1033A000A0693044B04206D924616060211DE868FC
:1033B00000F05AF908E0002003460146009032462A
:1033C000204601F02BFA38B1E86801680029DAD10B
:1033D0002969C5E90310F8BD502080F31188BFF3B7
:1033E0004F8FBFF36F8FFEE78400002008484068CE
:1033F000401C4FF0500080F3118804D0BFF34F8F72
:10340000BFF36F8FFEE7BFF34F8FBFF36F8FFEE702
:10341000BC000020074CE068016841B1C068002191
:10342000D0F80000FFF728FFFFF7A8FEF3E701211F
:103430000020F7E7840000202DE9F041044600F069
:1034400037F994F9455004F1240609E0606A48B15F
:10345000304601F0E7F808B100F05CFA6D1E6DB27D
:10346000002DF3DC4FF0FF3684F8456000F040F9A2
:1034700000F01EF994F9445004F1100709E02069A6
:1034800048B1384601F0CEF808B100F043FA6D1E9D
:103490006DB2002DF3DC84F84460BDE8F04100F02B
:1034A00027B900002DE9F0410546002700F0B0FAE9
:1034B000324E306808B9FFF71DFD706905424ED1E4
:1034C000C5B3083568070ED005F00700C0F1080045
:1034D0000544680707D0502080F31188BFF34F8F51
:1034E000BFF36F8FFEE72DB37068854237D823484E
:1034F000183001460C6801E020460C466168A9427C
:1035000002D221680029F7D131688C4227D00768A0
:103510002168016060680837411B10290FD96019C4
:10352000420708D0502080F31188BFF34F8FBFF3BC
:103530006F8FFEE713E041606560FFF7CFFD6168C4
:103540007068401A7060B268904200D2B0607069D2
:1035500001430020C4E90001F068401CF06001F064
:1035600099F8780707D0502080F31188BFF34F8F68
:10357000BFF36F8FFEE73846BDE8F0819C00002066
:1035800010B5040006D000F093F8E46900F0B0F83C
:10359000204610BD502080F31188BFF34F8FBFF33A
:1035A0006F8FFEE710B5031F4FF080741C601B1F68
:1035B00021F001011960191F044B0B6014390A60D6
:1035C000091F6FF0020244380A6010BDED33000895
:1035D0004FF47A7403A0FEF747FF2046FFF744F943
:1035E000F8E70000464C41475F5741495420495392
:1035F000204F4B0D0A000000D0E9013201699A60AA
:10360000D0E901235A604A68824201D182684A6047
:10361000002202610868401E0860086870470000C8
:10362000034B036003F15C0008608020106070476A
:10363000A8100020044B036003F15C0008604FF405
:1036400080701060704700000413002000F1080132
:103650004FF0FF32C0E90112C16001610021016039
:10366000704700210161704730B50B685A1C02D0C9
:1036700000F1080202E0026904E02246546825686D
:103680009D42FAD953684B6099608A605160086125
:103690000168491C016030BD42684A6093688B60D4
:1036A00093685960916008610168491C0160704726
:1036B000502080F31188BFF34F8FBFF36F8F0A49FB
:1036C0004868401C486001280CD10848006810F088
:1036D000FF0F07D0502080F31188BFF34F8FBFF347
:1036E0006F8FFEE770470000BC00002004ED00E093
:1036F0000849486828B1401E486001D180F311880C
:103700007047502080F31188BFF34F8FBFF36F8F46
:10371000FEE70000BC00002070B500282AD0164D3E
:10372000A0F1080460686969084207D1502080F35D
:103730001188BFF34F8FBFF36F8FFEE722683AB156
:10374000502080F31188BFF34F8FBFF36F8FFEE7D8
:103750008843606000F05CF96068696808446860EC
:103760002046FFF7BBFC2869401C2861BDE870407B
:1037700000F090BF70BD00009C0000204FF0E020E2
:1037800000210161816105494FF47A720968B1FB3A
:10379000F2F1491E41610721016170474400002098
:1037A00010B5FCF757FD114910280ED300F1E020A9
:1037B00090F8F0030A78904207D2502080F31188E5
:1037C000BFF34F8FBFF36F8FFEE70948006889682A
:1037D00000F4E060884207D9502080F31188BFF3DD
:1037E0004F8FBFF36F8FFEE710BD0000BC000020BD
:1037F0000CED00E010B5084B002200BF53F832403A
:103800001CB1521C082AF9D310BD43F8321003EB47
:10381000C201486010BD00008C0A002010B50400F1
:103820000AD000F013F894F8460000280CD1204686
:10383000BDE81040FFF770BF502080F31188BFF340
:103840004F8FBFF36F8FFEE710BD0000084A0021C5
:1038500002EBC1035B68834206D1002042F83100CD
:1038600002EBC10148607047491C0829F0D370473A
:103870008C0A002070B515460E460446FFF718FF67
:1038800094F944100020491C01D184F8440094F9B3
:103890004510491C01D184F84500FFF729FFA06BB2
:1038A00028B92A46314604F1240000F051F8204698
:1038B000BDE87040FFF7C0BD10B5020014D00F483E
:1038C000006B38B1502080F31188BFF34F8FBFF3E6
:1038D0006F8FFEE700F09CF800211046FFF7E4F937
:1038E00000F0D8FE002807D105494FF0805008604D
:1038F000BFF34F8FBFF36F8F10BD00004800002053
:1039000004ED00E002490A6A0260C968416070473C
:103910004800002001490120C8617047480000208C
:1039200010B50C4650B1094909681831FFF79CFEE3
:103930002046BDE810400121FFF7B6B9502080F3C2
:103940001188BFF34F8FBFF36F8FFEE74800002051
:1039500070B514460D4668B10A4909681831FFF779
:103960009BFE0CB14FF0FF3521462846BDE8704064
:10397000FFF79AB9502080F31188BFF34F8FBFF340
:103980006F8FFEE74800002030B587B00024039415
:1039900005AA04A903A80494FFF742FEDDE9030188
:1039A0000094CDE90110002315A11748059A00F0F5
:1039B0001EFC164D0028E8621FD000F0FFFE012813
:1039C00009D0401C19D1502080F31188BFF34F8FCC
:1039D000BFF36F8FFEE7502080F31188BFF34F8F46
:1039E000BFF36F8F4FF0FF30A86201206861EC6079
:1039F00007B0BDE8304000F069B807B030BD000046
:103A000049444C4500000000412F000848000020B8
:103A10000248016B491C0163704700004800002008
:103A2000164810B5016B11B10121C16110BD002113
:103A3000C1610169124A01E0B9B1491E01EB81037C
:103A400052F82330002BF7D001EB810302EB830205
:103A500002F1080453685B685360A34201D15B68BC
:103A60005360DA680260016110BD502080F3118854
:103A7000BFF34F8FBFF36F8FFEE7000048000020B9
:103A8000CC0A002070B52020FFF70CFD040005D003
:103A90000025201D2560FFF7D9FD2577204670BD44
:103AA00038B558B120210446002000912060201D27
:103AB000FFF7CCFD01202077204638BD502080F351
:103AC0001188BFF34F8FBFF36F8FFEE71CB53748E8
:103AD0000168374A914207D1502080F31188BFF323
:103AE0004F8FBFF36F8FFEE700683149491E884250
:103AF00007D1502080F31188BFF34F8FBFF36F8F32
:103B0000FEE72C4908780190FF20087008788DF8AE
:103B100000009DF800009DF8002000F0F0009042A9
:103B200007D0502080F31188BFF34F8FBFF36F8F02
:103B3000FEE79DF80000204C00F0500020700720A8
:103B4000A06005E09DF8002052008DF80020401E86
:103B50009DF800201206F5D4A060032807D050205D
:103B600080F31188BFF34F8FBFF36F8FFEE74FF4E1
:103B70004070A060019808700C482030016841F442
:103B800070010160016841F070410160FFF7F6FDCE
:103B900000206060FCF726FB0848016841F04041C6
:103BA0000160FCF70BFB00201CBD000000ED00E0F5
:103BB00071C20F4100E400E0BC00002034EF00E0DF
:103BC00010B5502080F31188BFF34F8FBFF36F8F74
:103BD00000F03EFC18B104494FF08050086000200E
:103BE00080F3118810BD000004ED00E010B50C4614
:103BF00048B184420FD9502080F31188BFF34F8F12
:103C0000BFF36F8FFEE7502080F31188BFF34F8F13
:103C1000BFF36F8FFEE70222002100F03CF800287E
:103C200000D0846310BD38B50C4648B184420FD92A
:103C3000502080F31188BFF34F8FBFF36F8FFEE7E3
:103C4000502080F31188BFF34F8FBFF36F8FFEE7D3
:103C50000221134600220091114600F03DF8002891
:103C600000D0846338BD10B502460021012000F069
:103C700012F80446FFF794F9204610BD38B50B46FC
:103C8000002200901146012000F026F80446FFF7BC
:103C900087F9204638BDF8B517460E46050013D003
:103CA00005FB06F05030FFF7FDFB04000AD00020B2
:103CB00084F8460004F150023B4631462846009401
:103CC000FFF77AF92046F8BD502080F31188BFF342
:103CD0004F8FBFF36F8FFEE738B5049D18B153B116
:103CE000CAB181B120E0502080F31188BFF34F8F1B
:103CF000BFF36F8FFEE7502080F31188BFF34F8F23
:103D0000BFF36F8FFEE7502080F31188BFF34F8F12
:103D1000BFF36F8FFEE739B1502080F31188BFF3F6
:103D20004F8FBFF36F8FFEE750241C46012384F8AA
:103D300046302B460094FFF73FF9204638BD00007F
:103D400070B50D46040025D0FFF7B2FCD4E90F2072
:103D5000216802FB0011A1600021A163216861605C
:103D60000A46D4E90F01401E00FB0121E160214613
:103D70004FF0FF3001F8440F487004F110008DB18E
:103D8000FFF764FC04F12400FFF760FCFFF7B0FCD0
:103D9000012070BD502080F31188BFF34F8FBFF317
:103DA0006F8FFEE721690029F0D000F03BFC00286E
:103DB000ECD004494FF080500860BFF34F8FBFF341
:103DC0006F8FE3E704ED00E02DE9FF4782B01D4669
:103DD0008A464FF00008040003D0BAF1000F08D063
:103DE00011E0502080F31188BFF34F8FBFF36F8F26
:103DF000FEE7206C38B1502080F31188BFF34F8F5D
:103E0000BFF36F8FFEE7022D0AD1E06B012807D0C8
:103E1000502080F31188BFF34F8FBFF36F8FFEE701
:103E200000F002FB3F4F4FF000094FF0805648B9B9
:103E3000049838B1502080F31188BFF34F8FBFF33F
:103E40006F8FFEE7FFF734FCA06BE16B884207D36E
:103E5000022D05D00498D0B1B8F1000F1AD01EE0A1
:103E60002A4651462046FEF7F4FF616A19B104F173
:103E7000240000F0D7FB20B13E60BFF34F8FBFF3AB
:103E80006F8FFFF735FC012006B0BDE8F087FFF724
:103E90002FFC22E06846FFF735FD4FF00108FFF7E1
:103EA00027FCFFF7B5FDFFF703FC94F94400401C25
:103EB00001D184F8449094F94500401C01D184F864
:103EC0004590FFF715FC04A9684600F029F930B1C8
:103ED0002046FFF7B1FA00F0DDFB0020D4E7FFF742
:103EE000E7FBA06BE16B884213D1FFF701FC04F103
:103EF00010000499FFF714FD2046FFF79DFA00F02B
:103F0000C9FB00289ED13E60BFF34F8FBFF36F8F78
:103F100098E7FFF7EDFB2046FFF78EFA00F0BAFBBB
:103F200090E7000004ED00E02DE9F0471F469046C1
:103F30008946040003D0B9F1000F08D011E05020E9
:103F400080F31188BFF34F8FBFF36F8FFEE7206CB4
:103F500038B1502080F31188BFF34F8FBFF36F8FBC
:103F6000FEE7022F0AD1E06B012807D0502080F332
:103F70001188BFF34F8FBFF36F8FFEE7FFF710FC81
:103F80005020EFF3118680F31188BFF34F8FBFF3FA
:103F90006F8FA06BE16B884206D3022F04D0002004
:103FA00086F31188BDE8F08794F94550A06B3A4636
:103FB00049462046FEF74DFF681C04D06D1C84F86E
:103FC00045500120ECE7606A0028FAD004F1240093
:103FD00000F028FB0028F4D0B8F1000FF1D0012147
:103FE000C8F80010EDE700002DE9F747002683B080
:103FF0008A46040003D0BAF1000F08D011E0502027
:1040000080F31188BFF34F8FBFF36F8FFEE7206CF3
:1040100038B1502080F31188BFF34F8FBFF36F8FFB
:10402000FEE700F001FADFF8F4804FF000094FF0EE
:10403000805748B9059838B1502080F31188BFF3F4
:104040004F8FBFF36F8FFEE7FFF732FBA56BC5B154
:1040500051462046FEF7EAFE6D1EA563206950B169
:1040600004F1100000F0DEFA28B1C8F80070BFF3C8
:104070004F8FBFF36F8FFFF73BFB012006B0BDE80A
:10408000F087059808B11EB106E0FFF731FB27E085
:104090006846FFF737FC0126FFF72AFBFFF7B8FC5D
:1040A000FFF706FB94F94400401C01D184F84490CA
:1040B00094F94500401C01D184F84590FFF718FBA6
:1040C00005A9684600F02CF8002820460AD0FFF722
:1040D000B3F900F0DFFA2046FFF742F80028B3D02A
:1040E0000020CBE7FFF73CF890B104F124000599DC
:1040F000FFF716FC2046FFF79FF900F0CBFA0028E7
:10410000A2D1C8F80070BFF34F8FBFF36F8F9BE74A
:104110002046FFF791F900F0BDFA95E704ED00E0C5
:104120002DE9F0410C46050011D0C4B1FFF7C0FAEB
:10413000174BDA686E682068911B471C17D02F68F0
:104140001B6A9F4219D0964217D8012410E05020D4
:1041500080F31188BFF34F8FBFF36F8FFEE75020BE
:1041600080F31188BFF34F8FBFF36F8FFEE70024FA
:10417000FFF7BEFA2046BDE8F081884205D9401A13
:1041800020602846FFF7BEFBF1E700202060DCE757
:10419000480000202DE9FF5F8346DDE90E87994640
:1041A00016468A469000FFF77DF905001CD05C207A
:1041B000FFF778F9040014D00020256384F8590033
:1041C000CDE90240CDE900874B463246514658467C
:1041D000FEF704FF2046FEF795FD012004B0BDE880
:1041E000F09F2846FFF798FA4FF0FF30F6E7F0B55A
:1041F00085B0DDE90B640A9DA6B1DCB15C270097B0
:104200002663022684F85960002604AFCDE90246F1
:10421000CDE90057FEF7E2FE2046FEF773FD049855
:1042200005B0F0BD502080F31188BFF34F8FBFF36E
:104230006F8FFEE7502080F31188BFF34F8FBFF3DD
:104240006F8FFEE72DE9F0411F4690460D4601268F
:1042500090B10446FFF72CFA0FB1606D386094F806
:104260005800022184F85810B8F1050F19D2DFE880
:1042700008F0230B0E141200502080F31188BFF3B6
:104280004F8FBFF36F8FFEE7616D294301E0616DD2
:10429000491C616510E0022801D065650CE000262C
:1042A00034E0616D491C07D0502080F31188BFF3C2
:1042B0004F8FBFF36F8FFEE7012827D1201DFFF737
:1042C0009BF9154DE06A2969884200D92861134994
:1042D00000EB800001EB8000211DFFF7DDF9A06AF3
:1042E00038B1502080F31188BFF34F8FBFF36F8F29
:1042F000FEE7E06A2968C96A884207D908494FF091
:1043000080500860BFF34F8FBFF36F8FFFF7F0F956
:104310003046BDE8F081000048000020CC0A0020B3
:1043200004ED00E02DE9F0471F46DDF820909246AD
:104330000D4604004FF001081AD0FFF731FA502063
:10434000EFF3118680F31188BFF34F8FBFF36F8FA8
:104350000FB1606D386094F85800022184F858104D
:10436000BAF1050F1AD2DFE80AF0240B0E1412007E
:10437000502080F31188BFF34F8FBFF36F8FFEE79C
:10438000616D294301E0616D491C616511E00228FE
:1043900001D065650DE04FF0000839E0616D491C02
:1043A00007D0502080F31188BFF34F8FBFF36F8F7A
:1043B000FEE701282CD1A06A38B1502080F3118883
:1043C000BFF34F8FBFF36F8FFEE7144D286B18B10B
:1043D00004F1180112480DE0201DFFF70DF9E06A05
:1043E0002969884200D928610E4900EB800001EB61
:1043F0008000211DFFF750F9E06A2968C96A8842E8
:1044000006D90120B9F1000F01D0C9F80000E86118
:1044100086F311884046BDE8F08700004800002080
:10442000540F0020CC0A00200548416919B1006BE7
:1044300018B100207047012070470220704700002B
:10444000480000200148C068704700004800002074
:104450002DE9F0412E4C0027206B28B1A069401CAB
:10446000A0613846BDE8F081E668761CE66013D1AD
:10447000606B006838B1502080F31188BFF34F8F14
:10448000BFF36F8FFEE7606BA16B6163A063206A6F
:10449000401C2062FEF750FFA06ADFF87880864259
:1044A00009D3606B0068A0B1606BC068C5686868BC
:1044B000864211D2A0622068C06A00EB800158F8E1
:1044C0002100012800D90127E0690028C9D001276F
:1044D000C7E74FF0FF30EDE7281DFFF78DF8A86A1A
:1044E00018B105F11800FFF787F8E86A21698842DA
:1044F00000D9206100EB800108EB8100291DFFF746
:10450000CBF8E86A2168C96A8842CAD30127C8E79C
:1045100048000020CC0A00202DE9F0411E46154637
:1045200088460746FFF7C4F81C4C206890F85800EE
:10453000022814D02068416DB943416521680120EB
:1045400081F858005EB101213046FEF7ADFB1449F9
:104550004FF080500860BFF34F8FBFF36F8FFFF7AE
:10456000C7F8FFF7A5F815B12068406D28602068EE
:1045700090F85800022801D0002505E02068416D20
:1045800021EA0801416501252168002081F85800D1
:10459000FFF7AEF82846BDE8F08100004800002093
:1045A00004ED00E070B504004FF0000133D01B4D66
:1045B0002868844207D0502080F31188BFF34F8FC2
:1045C000BFF36F8FFEE7206D38B1401E2065E36CAE
:1045D000E26A9A421FD040B11DE0502080F311885A
:1045E000BFF34F8FBFF36F8FFEE7201DFFF704F877
:1045F000E06CE062C0F13800A061E06A296988429D
:1046000000D92861064900EB800001EB8000211DE4
:10461000FFF742F80121084670BD00004800002065
:10462000CC0A002070B5C068C46854B104F1180009
:104630000646FEF7E1FF144D286B50B13146134892
:1046400015E0502080F31188BFF34F8FBFF36F8FB9
:10465000FEE7201DFEF7D0FFE06A2969884200D9F5
:1046600028610B4900EB800001EB8000211DFFF762
:1046700013F8E06A2968C96A884202D90120E86112
:1046800070BD002070BD000048000020540F0020C5
:10469000CC0A00202DE9F0472C4D00242746286B3A
:1046A00038B1FFF705F8286B401E2863286B40B12E
:1046B00046E0502080F31188BFF34F8FBFF36F8F18
:1046C000FEE7A968224E0120D1B3A6F59169804684
:1046D0003068E0B1F068C46804F11800FEF78CFFA0
:1046E000201DFEF789FFE06A2969884200D9286108
:1046F00000EB800109EB8100211DFEF7CDFFE06A90
:104700002968C96A8842E3D3C5F81C80E0E70CB188
:10471000FEF712FEAC694CB14FEA0806FFF798FEAF
:1047200000B1EE61641EF9D10020A861E86938B1DA
:104730000849012738070860BFF34F8FBFF36F8F19
:10474000FEF7D6FF3846BDE8F0870000480000209D
:10475000540F002004ED00E02DE9FC4781461E4681
:10476000174688462C200A9DFEF79CFE04000AD0BE
:10477000002084F82800CDE9005433463A464146EB
:104780004846FEF783FC2046BDE8FC877CB52C2616
:10479000DDE90654009644B1022684F82860CDE98C
:1047A0000054FEF773FC20467CBD502080F3118836
:1047B000BFF34F8FBFF36F8FFEE7000010B586B0D9
:1047C000FEF708FB114C2068B8B10020039004905C
:1047D00005AA04A903A8FEF72DFFDDE903210220A5
:1047E0008DE8070000230AA10B48059AFFF7FFFC9C
:1047F000606010B106B0012010BD502080F3118818
:10480000BFF34F8FBFF36F8FFEE7000084000020DF
:10481000546D722053766300153400082DE9FF4172
:104820001E46134602000A9D4FF0000016D0144C9D
:104830002768002F0FD0CDE900130292062917DA5E
:10484000FFF7F2FD02284FF000030FD00022694667
:104850002068FFF7B9FA04B0BDE8F081502080F37A
:104860001188BFF34F8FBFF36F8FFEE72A46EEE745
:104870000023324669463846FFF756FBEBE7000057
:1048800084000020184A000800000000000000001A
:1048900000000000000000000002000028000000EE
:1048A0000000000000000000284A0008000000008E
:1048B00000000000000000000000000000020000F6
:1048C0001800000000000000000000000C4A000872
:1048D00000000000000000000000000000000000D8
:1048E00000020000080000000000000000000000BE
:1048F000BC490008000000000000000000000000AB
:104900000000000000000000E8490008000000006E
:104910000000000000000000004A00080000000045
:104920000000000000000000D8490008000000005E
:104930000000000000000000C8490008000000005E
:104940000000000000000000F44900080000000022
:1049500000000000000000000006101600061016FF
:10496000000000000000000001020304060708091F
:10497000000000000102030441542B43574A4150F8
:104980003D22323035222C224B6E696768743137F4
:104990002200000041542B43495053544152543D8E
:1049A00022544350222C223139322E3136382E36C1
:1049B000362E313030222C38303830006D79517538
:1049C00065756530310000006D79436F756E7469EF
:1049D0006E6753656D3031006D7942696E61727931
:1049E00053656D30310000006D7954696D6572302A
:1049F000310000006D794576656E7430310000003D
:104A00006D794D7574657830310000006D795461B1
:104A1000736B3033000000004C45445F6F70656E6F
:104A20005F636C6F736500007573617274315F73DF
:104A3000686F7700544A000800000020CC00000096
:104A4000A8240008204B0008CC0000209456000049
:104A5000B824000800000000000000000000000072
:104A60007849000894490008000000000000000098
:104A70000000000000000000000000000000000036
:104A80000000000000000000000000000100000025
:104A900010000000000000000024F40000000000EE
:104AA0000000000000000000000000000000000006
:104AB00000000000000000000000000000000000F6
:104AC00000000000000000000000000000000000E6
:104AD00000000000000000000000000000000000D6
:104AE00000000000000000000000000000000000C6
:104AF00000000000000000000000000000000000B6
:104B000000000000000000000000000000000000A5
:104B100000000000AAAAAAAA0000000000000000ED
:040000050800018965
:00000001FF
