:020000040800F2
:10000000980D00209D010008FF1F0008CD1D00086D
:10001000FD1F0008F902000821260008000000006A
:1000200000000000000000000000000003200008A5
:10003000AD030008000000000120000805200008B2
:10004000B7010008B7010008B7010008B7010008B0
:10005000B7010008B70100082D090008B701000822
:10006000B7010008B7010008B7010008B701000890
:10007000FD020008B7010008B7010008B701000839
:10008000B7010008B7010008B7010008B701000870
:10009000B7010008B7010008B7010008B701000860
:1000A000B7010008B7010008B7010008B701000850
:1000B000B7010008B7010008B7010008B701000840
:1000C000B7010008B7010008B7010008B701000830
:1000D000B701000809260008B70100081526000826
:1000E00033090008B7010008B7010008B70100088C
:1000F000B7010008B7010008B7010008B701000800
:10010000B7010008B7010008B7010008B7010008EF
:10011000B7010008B7010008B1200008B7010008C6
:10012000B7010008B7010008B7010008B7010008CF
:10013000B7010008B7010008B7010008B7010008BF
:10014000B7010008B7010008B7010008B7010008AF
:10015000B7010008B7010008B7010008B70100089F
:10016000B7010008B7010008B7010008B70100088F
:10017000B7010008B7010008B7010008000000003F
:10018000B7010008B7010008DFF80CD000F0A2F8B2
:1001900000480047512A0008980D00200648804773
:1001A00006480047FEE7FEE7FEE7FEE7FEE7FEE75C
:1001B000FEE7FEE7FEE7FEE7A12000088901000850
:1001C0002DE9F05F0546002092469B46884606468C
:1001D000814640241BE0284641464746224600F01F
:1001E00069F853465A46C01A914110D31146184631
:1001F000224600F050F82D1A67EB01084F462246C0
:100200000120002100F047F817EB00094E41201EA5
:10021000A4F10104DFDC484631462A464346BDE8E6
:10022000F09FD2B201E000F8012B491EFBD27047CB
:100230000022F6E710B513460A4604461946FFF7B2
:10024000F0FF204610BD30B505462A460B4612F891
:10025000010B13F8014B08B1A042F8D01CB10028E3
:1002600002D06D1CF1E7284630BD30B50B46014683
:1002700000202022012409E021FA02F59D4205D345
:1002800003FA02F5491B04FA02F52844151EA2F1EF
:100290000102F1DC30BD202A04DB203A00FA02F131
:1002A000002070479140C2F1200320FA03F3194364
:1002B00090407047202A04DB203A21FA02F0002106
:1002C000704721FA02F3D040C2F120029140084366
:1002D00019467047064C074D06E0E06840F0010300
:1002E00094E8070098471034AC42F6D3FFF750FF6C
:1002F000FC2A00081C2B0008FEE70000014800F063
:100300008BBB00003809002001681823CAB2103ADC
:10031000B2FBF3F2054B6FF30901032A9B5CC36543
:1003200000D9091D8165084670470000982A000819
:1003300010B5014600208B698A6A4FF0C07453B132
:10034000B3F5005F15D072B1012A0CD0022A0AD091
:10035000032A09D104E01AB1012A06D0022A03D1E6
:10036000C96AC90100D5012010BDC96AA142FAD0ED
:1003700010BD002AF7D0012AF2D0022AF3D0032AB6
:10038000F3D010BD30B50468256825F480252560BC
:10039000046863608368402B036803D09960006839
:1003A000C26030BD9A600068C16030BD7047000017
:1003B00010B528B10DA000F067F828B90DA011E024
:1003C00015A000F061F850B141F2883114A000F09E
:1003D0000BF930B113A002F03BF9012010BD18A0B9
:1003E00000E020A002F034F9002010BD4154453156
:1003F00000000000455350383236365F4154455FA7
:1004000053455420415445312073656E6420666124
:10041000696C65640D0A000041544530000000001D
:100420004F4B0000455350383236365F4154455FDC
:1004300053455420737563636573730D0A000000A0
:10044000455350383236365F4154455F534554204A
:10045000415445302073656E64206661696C656443
:100460000D0A0000455350383236365F4154455F1F
:100470005345542077616974204F4B2074696D6532
:100480006F75740D0A00000010B50446A0B04FF45B
:1004900000610A48FFF7CCFE234609A28021684686
:1004A00002F0E6F8002801DD802802D3002020B009
:1004B00010BD81B2684600F053F8F8E72000002034
:1004C00025730D0A0000000010B50BA0FFF7DCFF3C
:1004D00050B141F288310AA000F086F830B10AA08C
:1004E00002F0B6F8012010BD0DA000E013A002F04C
:1004F000AFF8002010BD000041542B5253540000AF
:100500007265616479000000455350383236365FB9
:10051000526573657420737563636573730D0A00A8
:10052000455350383236365F5265736574207365B3
:100530006E64206661696C65640D0A00455350382D
:100540003236365F52657365742077616974207244
:10055000656164792074696D656F75740D0A0000BA
:100560000A4610B501464FF0FF33044801F0C4FBC2
:1005700008B1002010BD012010BD0000F0080020CF
:10058000084982B088420AD1086801684068009032
:100590004FF400620449034802B001F04CB902B0C4
:1005A00070470000F0080020200000200A4A10B523
:1005B00090420FD1094A012010700A4608490948A3
:1005C00001F0EAFBBDE810404FF400620449024824
:1005D00001F031B910BD0000F0080020000000203B
:1005E00020000020A80800202DE9F0470F46824691
:1005F00000F098FC05464FF40069194C05E000BF77
:1006000000F090FC401BB84223D820780028F7D097
:100610000025257000F086FC0646DFF8488013E0D0
:1006200088F8FF5751460F48FFF70DFE30B1494695
:100630000C48FFF7FDFD0120BDE8F087207818B1D8
:10064000257000F06FFC064600F06CFC801BB84281
:10065000E6D949460348FFF7EBFD0020ECE7000030
:1006600000000020200000200B4810B58068FFF734
:100670000BFF50B141F2883108A0FFF7B5FF30B150
:1006800007A001F0E5FF012010BD0DA000E015A0BE
:1006900001F0DEFF002010BD000000204F4B0000E5
:1006A000455350383236365F7463705F636F6E6ED9
:1006B00065637420737563636573730D0A000000CE
:1006C000455350383236365F7463705F636F6E6EB9
:1006D0006563742073656E64206661696C65640D82
:1006E0000A000000455350383236365F7463705F3D
:1006F000636F6E6E6563742077616974204F4B2061
:1007000074696D656F75740D0A00000010B513A053
:10071000FFF7BAFEB8B141F28834214613A0FFF7C3
:1007200063FF002811D012A0FFF7AEFE00280ED004
:10073000214612A0FFF758FF00280AD010A001F0B0
:1007400087FF012010BD19A004E026A002E034A01C
:1007500000E041A001F07CFF002010BD41542B437C
:1007600049504D4F44453D31000000004F4B0000C3
:1007700041542B43495053454E4400003E00000075
:10078000455350383236365F7472616E73706172E1
:10079000656E745F6D6F64655F656E7465722073FE
:1007A0007563636573730D0A00000000455350388C
:1007B0003236365F7472616E73706172656E745F2B
:1007C0006D6F64655F656E746572204349504D4F6F
:1007D00044452073656E64206661696C65640D0A2A
:1007E00000000000455350383236365F7472616E37
:1007F00073706172656E745F6D6F64655F656E7452
:1008000065722077616974204349504D4F444520FB
:100810004F4B2074696D656F75740D0A0000000000
:10082000455350383236365F7472616E7370617240
:10083000656E745F6D6F64655F656E74657220438D
:10084000495053454E442073656E64206661696C5F
:1008500065640D0A00000000455350383236365F9B
:100860007472616E73706172656E745F6D6F6465D2
:100870005F656E7465722077616974203E207469CB
:100880006D656F75740D0A000B4810B54068FFF771
:10089000FBFD50B143F6982108A0FFF7A5FE30B14B
:1008A00007A001F0D5FE012010BD0DA000E015A0AD
:1008B00001F0CEFE002010BD000000204F4B0000D4
:1008C000455350383236365F776966695F636F6EBD
:1008D0006E65637420737563636573730D0A00003E
:1008E000455350383236365F776966695F636F6E9D
:1008F0006E6563742073656E64206661696C6564FF
:100900000D0A0000455350383236365F7769666904
:100910005F636F6E6E6563742077616974204F4BFF
:100920002074696D656F75740D0A0000012000F078
:10093000EFB94FF4005000F0EBB972B6FEE70000DB
:1009400001224FF4E071014800F0E6BA00140240C1
:1009500000224FF4E071014800F0DEBA00140240BA
:100960002DE9F0410446876D00F0DCFA064694F864
:1009700035000025022806D08020606584F83450B8
:100980000120BDE8F0812068016821F016010160B6
:100990002068416921F080014161206C08B9A06C98
:1009A00020B12068016821F0080101602068016819
:1009B00021F0010101600CE000F0B4FA801B052871
:1009C00007D920206065032084F8350084F834506E
:1009D000D7E720680068C007EED194F85C103F208C
:1009E0008840B860012084F8350084F83450002035
:1009F000C7E790F83510022903D080214165012016
:100A00007047052180F835100068016821F0010168
:100A100001600020704700002DE9F84304464FF0C4
:100A20000009CDF8009063484FF41651A56D006899
:100A3000B0FBF1F72E6894F85C10082000FA01F181
:100A400031420FD021680A6852070BD50A6822F09C
:100A500004020A6094F85C108840A860606D40F061
:100A60000100606594F85C104FF0010808FA01F08D
:100A7000304208D021684969090604D5A860606D34
:100A800040F00200606594F85C1004208840304219
:100A900008D021680968890704D5A860606D40F016
:100AA0000400606594F85C1010208840304218D033
:100AB00021680968090714D5A860206801684903FE
:100AC00004D50068000308D5A16C07E00168C905DA
:100AD00003D4016821F008010160216C09B12046AE
:100AE000884794F85C1020208840304231D021683B
:100AF0000968C9062DD5A86094F835000528206836
:100B0000016806D0490347D5006800031DD4616C15
:100B10001CE021F0160101602068416921F080018C
:100B20004161206C08B9A06C20B12068016821F0F7
:100B30000801016094F85C103F208840A86084F8A8
:100B4000358084F83490216D1FE0E16B09B12046B7
:100B50008847606D00282BD0606DC00714D0052039
:100B600084F835002068016821F0010101600098D7
:100B7000401C0090B84203D820680068C007F6D136
:100B800084F8358084F83490E16C002910D001B0ED
:100B90002046BDE8F04308470168C905D5D401687F
:100BA00021F01001016084F8358084F83490CCE79E
:100BB000BDE8F883180000202DE9F041044600F05C
:100BC000B1F906465CB1022084F83500002584F8AE
:100BD00034502068016821F0010101600DE001201E
:100BE000BDE8F08100F09EF9801B052805D9202082
:100BF0006065032084F83500F2E720680068C007CC
:100C0000F0D12268116820480140D4E9010318435B
:100C1000D4E903363343184363691843A36918437F
:100C2000E3691843236A18430843616A042903D11E
:100C3000D4E90B1319430843106020684069666AC1
:100C400020F0070130460E43012704280CD1A06A8A
:100C50000643E06A40B12046FFF76AFB20B140201E
:100C6000606584F83570BAE7206846612046FFF772
:100C70004BFB94F85C203F2191408160656584F8CE
:100C800035700020ACE700003F8010F02DE9F04106
:100C90000446866D90F83400002501280DD001200F
:100CA00084F8340094F835700020012F07D084F8C0
:100CB000340002252846BDE8F0810220FBE7022728
:100CC00084F8357060652046FFF75CFB94F85C1093
:100CD0003F208840B0602068016841F01601016043
:100CE000206C20B12068016841F008010160206893
:100CF000016841F001010160DCE7012804D0B0F592
:100D0000005F03D1FFF71CBEFFF722BE7047000053
:100D1000044910B50A68024202D00860FFF7EDFFEF
:100D200010BD0000143C01402DE9F84FDFF8BCA1D4
:100D30000022012503264FF00F090AF1040BAAF146
:100D4000040E00BF0B6805FA02F42340A34270D1E1
:100D50000F7907F00307012F01D0022F16D1876802
:100D60004FEA420806FA08FC27EA0C07D1F80CC043
:100D70000CFA08FC4CEA070CC0F808C04768A74307
:100D80000C79C4F3001494403C4344600C79E44370
:100D9000A4070AD0C4684FEA420C06FA0CF7BC4319
:100DA0008F6807FA0CF72743C7600C7904F0030437
:100DB000022C12D1D40800EB840CDCF82040570739
:100DC000FF0E09FA07F824EA0804D1F8108008FA9F
:100DD00007F848EA0408CCF8208004684FEA420C7F
:100DE00006FA0CF7BC430F7907F0030707FA0CF774
:100DF000274307604C6814F4403F70D03C4C276890
:100E000047F480472760246822F0030704F48044F5
:100E10000094384C07EB040CDCF8084897074FEABD
:100E2000177809FA08F7BC43334FB84202D10027BC
:100E300024E054E0314FB84201D101271EE0304F89
:100E4000B84201D1022719E02E4FB84201D1032741
:100E500014E02D4FB84201D104270FE02B4FB842C8
:100E600001D105270AE02A4FB84201D1062705E043
:100E7000284FB84201D1072700E0082707FA08F7F2
:100E80002743CCF80878DAF800405746D1F804C078
:100E90009C435FEACC2C00D51C433C60DBF800404F
:100EA0005F46D1F804C09C435FEA8C2C00D51C43FC
:100EB0003C60DEF800407746D1F804C09C435FEA0E
:100EC0008C3C00D51C433C60084F083F3C68D1F87F
:100ED00004C09C435FEACC3C00D51C433C60521CE0
:100EE000102AFFF42FAFBDE8F88F0000083C014046
:100EF000443802400030014000000240000402403B
:100F000000080240000C02400010024000140240A1
:100F100000180240001C02400AB1816170470904B8
:100F2000FBE7000001488068704700000C000020CB
:100F30000248816802781144816070470C000020EB
:100F40000B4810B5016841F400710160016841F47B
:100F500080610160016841F480710160032000F04C
:100F60006FF80F2000F006F800F024F8002010BD04
:100F7000003C024070B50D4D04464FF47A7128785C
:100F8000B1FBF0F00A490968B1FBF0F000F00CFB8E
:100F900048B9102C07D200222146501E00F030F82C
:100FA00000206C6070BD012070BD00000C000020AE
:100FB000180000200A4808B5016841F4804101602A
:100FC000006800F4804000900548001F016841F06F
:100FD00080510160006800F08050009008BD000062
:100FE00044380240002809DB00F01F020121914033
:100FF0004009800000F1E020C0F8001170470000B7
:10100000F0B40E4B1B680C46C3F30223C3F1070573
:10101000042D00D90425191D072901D2002300E061
:10102000DB1E012606FA05F1491E214099409E402B
:10103000761E16403143F0BC01F032BB0CED00E0EF
:10104000064900F0070208684FF6FF03184040EA1F
:101050000220034A10430860704700000CED00E0D6
:101060000000FA052DE9F0470E46050065D0DFF8CF
:101070001481D8F80000F7B200F00700B04207D2A0
:1010800088F80070D8F8000000F00700B04254D192
:1010900028683D4C810712D5400703D5206840F4ED
:1010A000E05020602878000703D5206840F46040B5
:1010B00020602068A96820F0F000084320602878AC
:1010C000C0072DD0304968680839012812D002289D
:1010D00013D0032811D00968890700292DDA216867
:1010E00021F0030101432160FFF71CFF814641F21B
:1010F000883A0EE009688903EFE709688901ECE79F
:10110000FFF710FFA0EB0901514502D90320BDE80C
:10111000F0872068696800F00C00B0EB810FEFD118
:10112000D8F80010404601F00701B14207D9077016
:10113000006800F00700B04201D00120E7E72878FE
:10114000400705D52068E96820F4E0500843206096
:101150002878000706D52068296920F4604040EA15
:10116000C100206000F038F82168084AC1F303117B
:10117000515CC8400649086006480068FFF7FAFE5F
:101180000020C4E7003C024008380240A02A0008C2
:101190001800002010000020044805490068096874
:1011A000044AC1F38221515CC840704718000020F6
:1011B00008380240B02A0008044805490068096858
:1011C000044AC1F34231515CC84070471800002006
:1011D00008380240B02A0008154810B5006810F021
:1011E0000C02144813D01449042A0FD0082A0ED137
:1011F0000F4C241F2268236802F03F025B0207D5D0
:101200002068C0F38810A0FB010106E0084610BD6D
:101210002168C1F38811A1FB00010023FEF7D0FF74
:101220002168C1F30141491C4900B0FBF1F010BD38
:10123000083802400024F40040787D012DE9F84F81
:1012400004006ED02078DFF84C93C007A9F10405A4
:101250004AD009F104000168C1F38101012908D0D5
:101260000068C0F3810002280AD1D9F800004002CA
:1012700006D52868800337D560680028E1D033E0C0
:101280006068B0F5803F10D0B0F5A02F286810D06E
:1012900020F480302860286820F48020286060686E
:1012A000A8B1FFF73FFE06460DE0286840F4803005
:1012B000F4E740F480202860F7E700BFFFF732FE34
:1012C000801B642873D828688003F7D50CE0FFF7EB
:1012D00029FE064605E000BFFFF724FE801B6428B8
:1012E000F0D828688003F7D42078DFF8AC82800734
:1012F0004FF0000A3ED5A748001D016811F00C0F01
:1013000008D00068C0F3810002280BD1D9F8000092
:10131000400207D42868800716D5E068012800D16C
:1013200012E033E1E068B8B10120C8F80000FFF72F
:10133000F9FD064605E000BFFFF7F4FD801B02281B
:10134000C0D828688007F7D52868216920F0F80000
:1013500040EAC10028600DE0C8F800A0FFF7E2FDF8
:10136000064604E0FFF7DEFD801B02281FD8286830
:101370008007F7D42078000722D5864F8748616917
:10138000703771B101210160FFF7CCFD064604E022
:10139000FFF7C8FD801B022809D838688007F7D5F9
:1013A0000EE0C0F800A0FFF7BDFD064605E082E0B4
:1013B000FFF7B8FD801B02287DD838688007F7D476
:1013C0002078400768D5DFF8CCB100270BF13C0B43
:1013D000DBF80000C0000BD4DBF8001041F08051B6
:1013E000CBF80010DBF80000012700F080500090DF
:1013F0006B4E3068C00510D4306840F480703060A7
:10140000FFF790FD009005E0FFF78CFD0099401A72
:10141000022850D83068C005F6D55E4EA0686C36FC
:1014200001280FD00528306810D020F0010030606E
:10143000306820F004003060A068B8B1FFF772FD9A
:1014400000900FE0306840F00100F4E740F0040045
:101450003060F7E7FFF766FD0099411A41F28830E6
:10146000814266D830688007F4D50EE0FFF75AFD58
:10147000009007E0FFF756FD0099411A41F28830CD
:10148000814256D830688007F4D42FB1DBF80010C1
:1014900021F08051CBF80010A069C8B33D49091D67
:1014A0000968C1F3810102294AD00228504607D0B9
:1014B000C8F8600000E03CE0FFF734FD04463BE084
:1014C0004746C8F86000FFF72DFD064605E000BF5F
:1014D000FFF728FD801B02282BD828688001F7D44D
:1014E000D4E907010843A16A2E4A490802EB0141E9
:1014F000626A41EA8211084394F82C1040EA0161C3
:10150000C9F8001001203866FFF70CFD044606E01C
:101510003EE000BFFFF706FD001B022809D828683F
:101520008001F7D534E000BFFFF7FCFC001B022868
:1015300002D90320BDE8F88F28688001F4D427E0A1
:101540000128F7D0D9F80000E26900F48001914247
:101550001CD1226A00F03F01914217D147F6C071B9
:10156000626A0140B1EB821F10D1A26A4FF0FF33D3
:1015700000F4403103EB5202B1EB024F06D194F874
:101580002C1000F07060B0EB016F01D00120D1E7AA
:101590000020CFE70438024000004742800E474257
:1015A000007000400000FFFF10B5401EB0F1807FCA
:1015B00001D3012010BD4FF0E02460610F216017BE
:1015C00001F06EF80020A06107202061002010BD0E
:1015D0007047704770B590F83C20012A32D0012442
:1015E00080F83C40022280F83D2003685A689D68DC
:1015F00022F070060A6832435A60134B02689A421E
:1016000014D0B2F1804F11D0104B9A420ED0104B33
:101610009A420BD00F4B9A4208D00F4B9A4205D0FA
:101620000E4B9A4202D00E4B9A4204D1496825F0E3
:1016300080031943916080F83D40002180F83C1000
:10164000084670BD022070BD00000140000400404B
:1016500000080040000C0040000401400040014030
:101660000018004010B5040003D094F83D0010B1FC
:1016700007E0012010BD002084F83C00204600F067
:101680001FF8022084F83D00211D206800F016FD9F
:10169000012084F8460084F83E0084F83F0084F876
:1016A000400084F8410084F8420084F8430084F844
:1016B000440084F8450084F83D00002010BD00007F
:1016C00008B500680B49884212D10B48016841F007
:1016D000100101600068002200F010000090114627
:1016E0003620FFF78DFCBDE808403620FFF77ABCB6
:1016F00008BD0000001000404038024070472DE94E
:10170000F04104460068C66805694FF00007A90764
:1017100013D5B10711D5F91E01610120207720688A
:1017200080698007204602D0FFF7E8FF04E000F060
:101730007EF8204600F07CF82777680716D57007FA
:1017400014D521686FF0040008610220207720681A
:10175000806910F4407F204602D0FFF7CFFF04E0FD
:1017600000F065F8204600F063F82777280715D5C4
:10177000300713D521686FF0080008610420207736
:101780002068C0698007204602D0FFF7B7FF04E059
:1017900000F04DF8204600F04BF82777E80616D504
:1017A000F00614D521686FF010000861082020773A
:1017B0002068C06910F4407F204602D0FFF79EFFEA
:1017C00004E000F034F8204600F032F82777E8070C
:1017D00008D0F00706D021686FF0010008612046AC
:1017E00000F027F8280608D5300606D521686FF0E6
:1017F000800008612046FFF7EBFE680608D57006FA
:1018000006D521686FF040000861204600F012F80C
:10181000A8060AD5B00608D521686FF02000086137
:101820002046BDE8F041FFF7D4BEBDE8F081704727
:1018300070477047704738B5044690F8420020283A
:1018400001D0022038BD51B14AB1012020630020EF
:101850006063204600F034FE216B012901D0012095
:1018600038BD21680A684968009121680C3151E847
:10187000002F42F0100241E80023002BF5D138BDC3
:1018800018B5034690F84200202801D0022018BD68
:1018900061B15AB10120186300205863184600F066
:1018A0005FFE0028F3D1196B012901D0012018BD7A
:1018B00019680A684968009119680C3151E8002FCD
:1018C00042F0100241E80024002CF5D118BD0000C0
:1018D0000B4A10B590420BD10A460A49084800F05D
:1018E0005BFABDE81040402206490548FFF7C8BF33
:1018F000054A904203D1BDE81040FEF757BE10BD27
:10190000A808002020080020F0080020FEF738BEBC
:10191000F8B5016804460868CA684B6910F00F0FF3
:101920004FF0000559D003F0010602F490773743D9
:1019300065D0C10705D0D10503D5616C41F0010127
:101940006164410705D5D90703D0616C41F00201FC
:101950006164810705D5D90703D0616C41F00401AA
:101960006164010707D502F02001314303D0616CA7
:1019700041F008016164616C00293AD0800604D509
:10198000900602D5204600F0B4FC20684069616CE6
:10199000C0F38010090700D460B3204600F074FC47
:1019A00020684069400621D52068143050E8001FA7
:1019B00021F0400140E80012002AF5D1E06BA8B107
:1019C00072490165E06BFFF714F8002811D0E06B55
:1019D000016D01B0BDE8F040084783060FD59306BE
:1019E0000DD52046BDE8F84000F083BC2046FFF747
:1019F0008DFFF8BD2046FFF789FF6564F8BD266BB3
:101A00002023012E7ED1C6067CD5D6067AD508685D
:101A10004868009048694FF0020640064DD5E26BD9
:101A2000106840684FF480770004000C3AD0A18D14
:101A3000814237D9E085D069B8422DD020680C307A
:101A400050E8001F21F4807140E80012002AF5D10F
:101A50002068143050E8001F21F0010140E8001216
:101A6000002AF5D12068143050E8001F21F0400111
:101A700040E80012002AF5D184F84230256320683E
:101A80000C3050E8001F21F0100140E80012002A3D
:101A9000F5D1E06BFEF764FF6663A08DE18D401A1F
:101AA00081B206E0A18D8142A8D1D069B842A5D10A
:101AB00066632046FFF70CFFF8BDA08DE18D401A4C
:101AC00081B2E08D0028F7D00029F5D020680C30D5
:101AD00050E8002F22F4907240E80027002FF5D143
:101AE0002068143050E8002F22F0010240E800275F
:101AF000002FF5D184F84230256320680C3050E87F
:101B0000002F00E006E022F0100240E80023002B46
:101B1000F3D1CDE705062BD5150629D594F841005C
:101B20002128C9D1A068B0F5805F01D12069B0B18A
:101B3000206A411C2162216800784860E08C401EC8
:101B40000004000CE084B7D12068C16821F0800156
:101B5000C1602068C16841F04001C160F8BD206AE1
:101B60000088C0F308004860206A801C2062E5E716
:101B70004006F3D55006F1D5CA68204622F040024F
:101B8000CA6084F8413000F020F9F8BD8D210008CA
:101B900070B5040004D094F84100002510B106E0AF
:101BA000012070BD84F84050204600F023F8242026
:101BB00084F841002068C16821F40051C1602046CA
:101BC00000F0F8FB2068016921F490410161206870
:101BD000416921F02A0141612068C16841F4005146
:101BE000C1606564202084F8410084F84200656388
:101BF000002070BDF0B587B0064614216846FEF798
:101C000017FB354F3068002534490222032307248F
:101C1000B84221D131481430066846F010060660FB
:101C2000006800F010000590086840F001000860AE
:101C30000868694600F00100059058028DE825000B
:101C4000CDE903342648FFF76FF80022114625201E
:101C5000FFF7D6F925203BE0224FB8423AD11F4882
:101C60001030076847F480270760006800F4802080
:101C70000590086840F0020008600868694600F0B6
:101C8000020005904FF440608DE82500CDE9033453
:101C90001548FFF749F8164C144820604FF00060D3
:101CA000C4E901054014C4E903506561A561E5611B
:101CB000256220466562FEF77FFF08B1FEF73DFE14
:101CC000F463002211462720A663FFF799F9272025
:101CD000FFF788F907B0F0BD00100140303802402E
:101CE000000002400048004000040240286002401A
:101CF00038090020704770472DE9F843044690F8F2
:101D00004100984616460D46202802D00220BDE824
:101D1000F88385B17EB100206064212084F8410001
:101D2000FFF700F9A6848146E684A0682027B0F575
:101D3000805F02D003E00120E9E7206910B12E4660
:101D400000250EE000260CE08021204600F023FC58
:101D5000A8B9C6B116F8010B21684860E08C401E96
:101D6000E084E08C4B464FF00002CDF80080002864
:101D7000EAD14FF04001204600F00DFC40B184F85C
:101D800041700320C3E735F8020BC0F30800E3E716
:101D900084F841700020BAE790F84130202B01D040
:101DA0000220704779B172B101628284C28400213D
:101DB0004164212180F841100068C16841F0800130
:101DC000C16000207047012070477047FEE70000A7
:101DD000094808B5016841F400110160006800225B
:101DE00000F40010009011460C20FFF709F9BDE83F
:101DF00008400C20FFF7F6B8303802402DE9F047D4
:101E000086B014216846FEF713FA4848002401689A
:101E100041F010010160016801F0100105910168B5
:101E200041F004010160016801F0040105910168BD
:101E300041F020010160016801F020010591016875
:101E400041F080010160016801F0800105910168A5
:101E500041F001010160016801F001010591016893
:101E600041F002010160016801F002010591016881
:101E700041F04001016000682D4E00F040000590E7
:101E8000012204213046FFF747F8DFF8A8904FF40D
:101E9000E077012239464846FFF73EF8DFF898A080
:101EA0004FF40048012241465046FFF735F8042020
:101EB00000900125CDE90154694630460394FEF7B0
:101EC00033FF68034FF48816CDE900066946029493
:101ED0001A48FEF729FF0097CDE9015469464846A4
:101EE0000394FEF721FF0095CDE90164694614488B
:101EF000FEF71AFFCDF80080CDE90154694650463F
:101F00000394FEF711FF002211460620FFF778F830
:101F10000620FFF767F8002211462820FFF770F827
:101F20002820FFF75FF806B0BDE8F08730380240A0
:101F30000010024000140240001802400008024055
:101F4000000002401CB500240F4800940D49019484
:101F500001605321C0E9011440F2E731C1608021E2
:101F60008161FFF77FFB08B1FEF7E7FC009469464B
:101F700005480194FFF72EFB002801D0FEF7DDFC99
:101F80001CBD000000100040600800200C4810B587
:101F90000A4901604FF4E1314160002181600C2267
:101FA000C160C0E904128161C161FFF7F1FD002841
:101FB00003D0BDE81040FEF7C0BC10BD00100140CA
:101FC000A80800200C4810B50A4901604FF4E1311F
:101FD0004160002181600C22C160C0E9041281616E
:101FE000C161FFF7D5FD002803D0BDE81040FEF722
:101FF000A4BC10BD00480040F0080020FEE7FEE74A
:1020000070477047FEF794BF30B593B030216846F3
:10201000FEF70EF914210CA8FEF70AF91E48002558
:10202000016841F080510160006800F0805011901B
:102030001A48016841F4804101600068022400F4FC
:102040008040119001200090000401908001CDE9B2
:102050000640192008904FF4A870CDE90904042027
:102060000B906846FFF7EAF808B172B6FEE70CA9D4
:102070000F2081E831004FF4A0500F904FF48050B2
:10208000109005210CA8FEF7EDFF002801D072B6D4
:10209000FEE713B030BD0000403802400070004041
:1020A0000248016841F470010160704788ED00E06A
:1020B0000148FFF724BB000060080020F0B502686B
:1020C000274B284D284E294F294C4FF0804C9842E1
:1020D00009D0604507D0A84205D0B04203D0B8422D
:1020E00001D0A04204D122F0700E4A6842EA0E02EA
:1020F00098421BD0604519D0A84217D0B04215D0E5
:10210000B84213D0A04211D01A4DA8420ED01A4D99
:10211000A8420BD0194DA84208D0194DA84205D0AD
:10212000184DA84202D0184DA84203D122F44075A0
:10213000CA682A434D6922F080022A438D68C5622D
:102140000D688562984201D0A04201D109690163FE
:10215000016841F004010160012141610260F0BDAC
:10216000000001400004004000080040000C004056
:10217000000401400040014000440140004801408B
:1021800000180040001C00400020004010B5806B8B
:102190000021C185FFF7BAFB10BD70B5846B2068C4
:1021A000406994F84110C0F3C0100025212904D1E2
:1021B00018B1E584204600F08EF82068406994F854
:1021C0004210C0F38010222904D118B1E5852046C1
:1021D00000F05AF8606C40F0100060642046FFF791
:1021E00095FB70BD10B50146806B096809684FF01A
:1021F0000002C9052ED4C28501680C3151E8003FA8
:1022000023F4807341E80034002CF5D101681431C7
:1022100051E8003F23F0010341E80034002CF5D1E0
:102220000168143151E8003F23F0400341E80034D5
:10223000002CF5D1202180F84210016B012909D131
:1022400001680C3151E8003F23F0100341E80034ED
:10225000002CF5D14263016B012902D0FFF74AFD42
:1022600010BD818DFFF734FB10BD10B5806B0121CF
:102270004163016B012902D0FFF73DFD10BD818D47
:102280004908FFF725FB10BD01680C3151E8002F0C
:1022900022F4907241E80023002BF5D1016814313B
:1022A00051E8002F22F0010241E80023002BF5D174
:1022B000016B012909D101680C3151E8002F22F08E
:1022C000100241E80023002BF5D1202180F84210B4
:1022D00000210163704701680C3151E8002F22F0A2
:1022E000C00241E80023002BF5D1202180F84110E5
:1022F000704708B590F84210222901D0022008BD8D
:1023000082684FF480539A4201D1016921B1816AF8
:102310009A421BD04AB10AE00268816A5268C2F34D
:1023200008020A80816A891C08E0026972B10268A9
:10233000526802F07F020A70816A491C8162C18D75
:10234000491E0904090CC18503D01BE002685268CC
:10235000F1E70168CA6822F02002CA600168CA6811
:1023600022F48072CA6001684A6922F001024A615F
:10237000202180F8421000214163026B012A03D022
:10238000FFF7B8FC002008BD016301680C3151E87B
:10239000002F22F0100241E80023002BF5D1016844
:1023A0000A68D20602D50A6849680091818DFFF754
:1023B0008FFAE7E770B5044600680169E26821F426
:1023C0004051114301612169A068E26908436169D4
:1023D000114308432168CA6849F20C639A430243D7
:1023E000CA6020684169A26921F4407111434161CA
:1023F00031492068884202D03049884202D1FEF734
:10240000DBFE01E0FEF7C8FEE26900231921642526
:102410003226B2F5004F626828D0A0FB0101930F6D
:102420009200FDF7CDFE0146B0FBF5F06FF018020B
:10243000504301EB800006EB0010B0FBF5F000F01C
:10244000F002B1FBF5F002EB0012B1FBF5F06FF01A
:102450001803584301EB800006EB0010B0FBF5F0C9
:1024600000F00F0021681044886070BDA0FB0101DE
:1024700092185B41FDF7A4FE0146B0FBF5F00201A6
:10248000B1FBF5F06FF01803584301EB800006EB49
:10249000C000B0FBF5F000F0F80002EB4002B1FB29
:1024A000F5F0584301EB800006EBC000B0FBF5F0FF
:1024B00000F00700D6E700000010014000140140C2
:1024C00038B581620446828500201346606422226A
:1024D00084F84220E56B1F4AEA63E56B1E4A2A64D2
:1024E000E56B1E4AEA64E26B10650A462168E06B00
:1024F000091DFEF7CBFB30B110206064202084F86A
:102500004200012038BD20680168406800902069C1
:1025100048B120680C3050E8001F41F4807140E859
:102520000012002AF5D12068143050E8001F41F055
:10253000010140E80012002AF5D12068143050E86B
:10254000001F41F0400140E80012002AF5D10020B0
:1025500038BD0000E52100086B2200089B2100081F
:1025600081628285C28500214164222180F8421067
:10257000016921B10168CA6842F48072CA600168C9
:102580004A6942F001024A610068C16841F02001D5
:10259000C160002070472DE9F843984617460D4664
:1025A0000446089E24E0701C22D0FEF7BBFCA0EB82
:1025B0000800B0421AD8CEB12068C168490717D5C3
:1025C000802D15D0402D13D00168C94309070FD4C1
:1025D00001680025406800902046FFF755FE08205E
:1025E000606484F840500120BDE8F8830320FBE7D5
:1025F0002068006835EA000004D00020B842D2D03C
:102600000020F1E70120F9E70148FFF781B9000058
:10261000A80800200148FFF77BB90000F00800205F
:10262000FEE710B5FDF750FF002810D00020FDF7A1
:10263000BFFE00280BD0FEF727F9002807D0FEF7D1
:1026400013F8002803D0BDE81040FEF75FB810BDB6
:102650000FB4054B10B503A9044A029800F040F8E6
:1026600010BC5DF814FB0000392A00081C00002093
:102670000FB41CB50246002007AC00290BD0491E40
:10268000CDE90021054B6A462146069800F028F85E
:10269000009A002111701CBC5DF814FB232A00086D
:1026A0000907090E002804DB00F1E02080F800147F
:1026B000704700F00F0000F1E02080F8141D704713
:1026C00002E008C8121F08C1002AFAD170477047FB
:1026D000002001E001C1121F002AFBD17047000059
:1026E0002DE9FF4F8BB088460546002606E02528D9
:1026F0000BD0DDE90D1290476D1C761C2878002860
:10270000F5D10FB03046BDE8F08F0024A146A246B7
:102710000122AE4900E0044315F8013F203B02FAD4
:1027200003F00842F7D128782A2810D06FF02F0242
:102730002878A0F13001092915D809EB890102EBAD
:10274000410144F0020400EB01096D1CF0E758F868
:10275000041B5FEA010903D544F40054C9F10009E0
:1027600044F002046D1C28782E2817D115F8010FAB
:1027700044F004042A280ED06FF02F022878A0F12C
:10278000300109290AD80AEB8A0102EB410100EB6A
:10279000010A6D1CF2E758F804AB6D1C28786C2810
:1027A0000FD006DC4C2817D068280DD06A2814D129
:1027B00004E0742810D07A280FD10DE044F40014FE
:1027C0000AE044F4801401E044F440146978814242
:1027D00002D104F580146D1C6D1C2878692865D021
:1027E00006DC00288DD0632827D0642806D15DE060
:1027F0006E2808D073282AD0752877D0DDE90D120D
:102800009047761CE0E0C4F30250022809D0032868
:102810000DD0D8F8001004280DD00E6008F104087F
:10282000D2E0D8F80010F217C1E90062F6E7D8F854
:1028300000100E80F2E70E70F0E718F8041B8DF818
:10284000001000208DF80100EB46012003E058F84D
:1028500004BB4FF0FF3061074FF0000701D40AE0DE
:102860007F1C57450DDA8742FADB1BF80710002959
:10287000F6D106E07F1C8742FCDB1BF8071000291D
:10288000F8D1DDE90D23A9EB07008146214600F0D0
:10289000B1F83044C61904E0DDE90D121BF8010B54
:1028A00090477F1EF8D22146484688E058F8040B2E
:1028B000C4F302514FF00A0B032900D100B20429DE
:1028C00000D140B2002802DA40422D2102E0210569
:1028D00005D52B218DF82410012104E006E0E10745
:1028E00010D02021F6E708AF089113E058F8040B48
:1028F000C4F302514FF00A0B032900D180B204291E
:1029000000D1C0B20021EEE75946FDF7AEFC3031F0
:1029100007F8011D0028F7D1ADEB070000F1200BEF
:10292000600702D524F4803401E04FF0010ADA4553
:1029300002DDAAEB0B0000E00020824600EB0B0159
:1029400008980144A9EB01000A90E00306D4DDE9F0
:102950000D2321460A9800F04DF806444FF0000977
:1029600008E009A911F80900DDE90D12904709F105
:102970000109761C08998945F3DBE0030CD5DDE9F4
:102980000D2321460A9800F035F8064404E0DDE9FD
:102990000D1230209047761CBAF10001AAF1010A0D
:1029A000F5DC05E0DDE90D1217F8010B9047761C08
:1029B000BBF10001ABF1010BF4DC0A982146DDE923
:1029C0000D2300F005F806446D1C97E60928010068
:1029D0002DE9F041044600251E461746880404D41C
:1029E00005E039462020B0476D1C641EF9D5284605
:1029F000BDE8F0812DE9F041044600251E469046D1
:102A0000C80301D5302700E02027880404D505E05D
:102A100041463846B0476D1C641EF9D52846BDE8CE
:102A2000F0814A68002A06D00A68531C0B601070B7
:102A30004868401E4860704713B54FF0FF330122CD
:102A400069460248FFF758F900981CBDA808002005
:102A5000FEF776FAFFF7D8FAFFF7D0F9FFF7B8F9E3
:102A6000FFF770FAFFF7AEFAFFF790FA4022064937
:102A70000648FEF705FF4FF4006205490548FEF7DA
:102A8000DAFEFFF7CEFDFEE720080020A8080020B0
:102A900020000020F0080020000610160006101686
:102AA00000000000000000000102030406070809FE
:102AB000000000000102030441542B43574A4150D7
:102AC0003D22323035222C224B6E696768743137D3
:102AD0002200000041542B43495053544152543D6D
:102AE00022544350222C223139322E3136382E36A0
:102AF000362E313039222C38303830001C2B00086B
:102B00000000002020000000C02600083C2B000828
:102B100020000020780D0000D026000800000000F2
:102B2000B82A0008D42A00080100000010000000A4
:0C2B3000000000000024F4000000000081
:040000050800018965
:00000001FF
