:020000040800F2
:10000000F80D00209D0100084B1C00080B1A000889
:10001000491C0008D5020008B922000800000000B1
:100020000000000000000000000000004F1C00085D
:1000300095030008000000004D1C0008511C00083A
:10004000B7010008B7010008B7010008B7010008B0
:10005000B7010008B7010008CD030008B701000888
:10006000B7010008B7010008B7010008B701000890
:10007000D9020008B7010008E5020008B70100082E
:10008000B7010008B7010008B7010008B701000870
:10009000B7010008B7010008B7010008B701000860
:1000A000B7010008B7010008B7010008B701000850
:1000B000B7010008B7010008B7010008B701000840
:1000C000B7010008B7010008B7010008B701000830
:1000D000B7010008A1220008B7010008AD220008FE
:1000E000D3030008B7010008B7010008B7010008F2
:1000F000B7010008B7010008B7010008B701000800
:10010000B7010008B7010008B7010008B7010008EF
:10011000B7010008B7010008FD1C0008B70100087E
:10012000B7010008B7010008B7010008B7010008CF
:10013000B7010008B7010008B7010008B7010008BF
:10014000B7010008B7010008B7010008B7010008AF
:10015000B7010008B7010008B7010008B70100089F
:10016000B7010008B7010008B7010008B70100088F
:10017000B7010008B7010008B7010008000000003F
:10018000B7010008B7010008DFF80CD000F090F8C4
:100190000048004789240008F80D002006488047E1
:1001A00006480047FEE7FEE7FEE7FEE7FEE7FEE75C
:1001B000FEE7FEE7FEE7FEE7ED1C00088901000808
:1001C0002DE9F05F0546002092469B46884606468C
:1001D000814640241BE0284641464746224600F01F
:1001E00057F853465A46C01A914110D31146184643
:1001F000224600F03EF82D1A67EB01084F462246D2
:100200000120002100F035F817EB00094E41201EB7
:10021000A4F10104DFDC484631462A464346BDE8E6
:10022000F09FD2B201E000F8012B491EFBD27047CB
:100230000022F6E710B513460A4604461946FFF7B2
:10024000F0FF204610BD30B50B46014600202022AD
:10025000012409E021FA02F59D4205D303FA02F5D3
:10026000491B04FA02F52844151EA2F10102F1DC33
:1002700030BD202A04DB203A00FA02F1002070474A
:100280009140C2F1200320FA03F3194390407047D4
:10029000202A04DB203A21FA02F00021704721FADB
:1002A00002F3D040C2F12002914008431946704742
:1002B000064C074D06E0E06840F0010394E80700B3
:1002C00098471034AC42F6D3FFF762FFF0240008E1
:1002D00010250008FEE70000014800F0EDB800001E
:1002E00038090020014800F0E7B800009809002014
:1002F00001681823CAB2103AB2FBF3F2054B6FF350
:100300000901032A9B5CC36500D9091D8165084664
:1003100070470000D024000810B5014600208B690A
:100320008A6A4FF0C07453B1B3F5005F15D072B153
:10033000012A0CD0022A0AD0032A09D104E01AB1FA
:10034000012A06D0022A03D1C96AC90100D50120B9
:1003500010BDC96AA142FAD010BD002AF7D0012A07
:10036000F2D0022AF3D0032AF3D010BD30B50468CE
:10037000256825F480252560046863608368402B28
:10038000036803D099600068C26030BD9A6000685D
:10039000C16030BD7047000070B50B4D4FF4004494
:1003A00000222146284600F027FB642000F0F6F9E1
:1003B00001222146284600F01FFBBDE870404FF4A3
:1003C000FA7000F0EBB9000000180240012000F0C4
:1003D0000FBA4FF4005000F00BBA72B6FEE70000FF
:1003E00001224FF4E071014800F006BB0014024006
:1003F00000224FF4E071014800F0FEBA0014024000
:100400002DE9F0410446876D00F0FCFA064694F8A9
:1004100035000025022806D08020606584F834501D
:100420000120BDE8F0812068016821F0160101601B
:100430002068416921F080014161206C08B9A06CFD
:1004400020B12068016821F008010160206801687E
:1004500021F0010101600CE000F0D4FA801B0528B6
:1004600007D920206065032084F8350084F83450D3
:10047000D7E720680068C007EED194F85C103F20F1
:100480008840B860012084F8350084F8345000209A
:10049000C7E790F83510022903D08021416501207B
:1004A0007047052180F835100068016821F00101CE
:1004B00001600020704700002DE9F84304464FF02A
:1004C0000009CDF8009063484FF41651A56D0068FF
:1004D000B0FBF1F72E6894F85C10082000FA01F1E7
:1004E00031420FD021680A6852070BD50A6822F002
:1004F00004020A6094F85C108840A860606D40F0C7
:100500000100606594F85C104FF0010808FA01F0F2
:10051000304208D021684969090604D5A860606D99
:1005200040F00200606594F85C100420884030427E
:1005300008D021680968890704D5A860606D40F07B
:100540000400606594F85C1010208840304218D098
:1005500021680968090714D5A86020680168490363
:1005600004D50068000308D5A16C07E00168C9053F
:1005700003D4016821F008010160216C09B1204613
:10058000884794F85C1020208840304231D02168A0
:100590000968C9062DD5A86094F83500052820689B
:1005A000016806D0490347D5006800031DD4616C7B
:1005B0001CE021F0160101602068416921F08001F2
:1005C0004161206C08B9A06C20B12068016821F05D
:1005D0000801016094F85C103F208840A86084F80E
:1005E000358084F83490216D1FE0E16B09B120461D
:1005F0008847606D00282BD0606DC00714D005209F
:1006000084F835002068016821F00101016000983C
:10061000401C0090B84203D820680068C007F6D19B
:1006200084F8358084F83490E16C002910D001B052
:100630002046BDE8F04308470168C905D5D40168E4
:1006400021F01001016084F8358084F83490CCE703
:10065000BDE8F883180000202DE9F041044600F0C1
:10066000D1F906465CB1022084F83500002584F8F3
:1006700034502068016821F0010101600DE0012083
:10068000BDE8F08100F0BEF9801B052805D92020C7
:100690006065032084F83500F2E720680068C00731
:1006A000F0D12268116820480140D4E901031843C1
:1006B000D4E903363343184363691843A3691843E5
:1006C000E3691843236A18430843616A042903D184
:1006D000D4E90B1319430843106020684069666A27
:1006E00020F0070130460E43012704280CD1A06AF0
:1006F0000643E06A40B12046FFF70EFE20B14020DD
:10070000606584F83570BAE7206846612046FFF7D7
:10071000EFFD94F85C203F2191408160656584F88D
:1007200035700020ACE700003F8010F02DE9F0416B
:100730000446866D90F83400002501280DD0012074
:1007400084F8340094F835700020012F07D084F825
:10075000340002252846BDE8F0810220FBE702278D
:1007600084F8357060652046FFF700FE94F85C1051
:100770003F208840B0602068016841F016010160A8
:10078000206C20B12068016841F0080101602068F8
:10079000016841F001010160DCE7000070B504462A
:1007A00000F030F90546601C02D00448007804448B
:1007B00000F028F9401BA042FAD370BD0C000020C5
:1007C00010B5012806D0B0F5005F0CD1BDE810408F
:1007D000FFF706BEFFF70CFEBDE8104008220249F5
:1007E000024801F0B5B810BD00000020F00800205C
:1007F000044910B50A68024202D00860FFF7E0FF22
:1008000010BD0000143C01402DE9F84FDFF8BCA1F9
:100810000022012503264FF00F090AF1040BAAF16B
:10082000040E00BF0B6805FA02F42340A34270D106
:100830000F7907F00307012F01D0022F16D1876827
:100840004FEA420806FA08FC27EA0C07D1F80CC068
:100850000CFA08FC4CEA070CC0F808C04768A7432C
:100860000C79C4F3001494403C4344600C79E44395
:10087000A4070AD0C4684FEA420C06FA0CF7BC433E
:100880008F6807FA0CF72743C7600C7904F003045C
:10089000022C12D1D40800EB840CDCF8204057075E
:1008A000FF0E09FA07F824EA0804D1F8108008FAC4
:1008B00007F848EA0408CCF8208004684FEA420CA4
:1008C00006FA0CF7BC430F7907F0030707FA0CF799
:1008D000274307604C6814F4403F70D03C4C2768B5
:1008E00047F480472760246822F0030704F480441B
:1008F0000094384C07EB040CDCF8084897074FEAE3
:10090000177809FA08F7BC43334FB84202D10027E1
:1009100024E054E0314FB84201D101271EE0304FAE
:10092000B84201D1022719E02E4FB84201D1032766
:1009300014E02D4FB84201D104270FE02B4FB842ED
:1009400001D105270AE02A4FB84201D1062705E068
:10095000284FB84201D1072700E0082707FA08F717
:100960002743CCF80878DAF800405746D1F804C09D
:100970009C435FEACC2C00D51C433C60DBF8004074
:100980005F46D1F804C09C435FEA8C2C00D51C4321
:100990003C60DEF800407746D1F804C09C435FEA33
:1009A0008C3C00D51C433C60084F083F3C68D1F8A4
:1009B00004C09C435FEACC3C00D51C433C60521C05
:1009C000102AFFF42FAFBDE8F88F0000083C01406B
:1009D0004438024000300140000002400004024060
:1009E00000080240000C02400010024000140240C7
:1009F00000180240001C02400AB1816170470904DE
:100A0000FBE7000001488068704700000C000020F0
:100A10000248816802781144816070470C00002010
:100A20000B4810B5016841F400710160016841F4A0
:100A300080610160016841F480710160032000F071
:100A40006FF80F2000F006F800F024F8002010BD29
:100A5000003C024070B50D4D04464FF47A71287881
:100A6000B1FBF0F00A490968B1FBF0F000F00CFBB3
:100A700048B9102C07D200222146501E00F030F851
:100A800000206C6070BD012070BD00000C000020D3
:100A9000180000200A4808B5016841F4804101604F
:100AA000006800F4804000900548001F016841F094
:100AB00080510160006800F08050009008BD000087
:100AC00044380240002809DB00F01F020121914058
:100AD0004009800000F1E020C0F8001170470000DC
:100AE000F0B40E4B1B680C46C3F30223C3F1070599
:100AF000042D00D90425191D072901D2002300E087
:100B0000DB1E012606FA05F1491E214099409E4050
:100B1000761E16403143F0BC01F0E0BB0CED00E066
:100B2000064900F0070208684FF6FF03184040EA44
:100B30000220034A10430860704700000CED00E0FB
:100B40000000FA052DE9F0470E46050065D0DFF8F4
:100B50001481D8F80000F7B200F00700B04207D2C5
:100B600088F80070D8F8000000F00700B04254D1B7
:100B700028683D4C810712D5400703D5206840F412
:100B8000E05020602878000703D5206840F46040DA
:100B900020602068A96820F0F000084320602878D1
:100BA000C0072DD0304968680839012812D00228C2
:100BB00013D0032811D00968890700292DDA21688C
:100BC00021F0030101432160FFF71CFF814641F240
:100BD000883A0EE009688903EFE709688901ECE7C4
:100BE000FFF710FFA0EB0901514502D90320BDE832
:100BF000F0872068696800F00C00B0EB810FEFD13E
:100C0000D8F80010404601F00701B14207D907703B
:100C1000006800F00700B04201D00120E7E7287823
:100C2000400705D52068E96820F4E05008432060BB
:100C30002878000706D52068296920F4604040EA3A
:100C4000C100206000F038F82168084AC1F30311A0
:100C5000515CC8400649086006480068FFF7FAFE84
:100C60000020C4E7003C024008380240D8240008B5
:100C70001800002010000020044805490068096899
:100C8000044AC1F38221515CC8407047180000201B
:100C900008380240E824000804480549006809684B
:100CA000044AC1F34231515CC8407047180000202B
:100CB00008380240E8240008154810B5006810F014
:100CC0000C02144813D01449042A0FD0082A0ED15C
:100CD0000F4C241F2268236802F03F025B0207D5F5
:100CE0002068C0F38810A0FB010106E0084610BD93
:100CF0002168C1F38811A1FB00010023FFF760FA0E
:100D00002168C1F30141491C4900B0FBF1F010BD5D
:100D1000083802400024F40040787D012DE9F84FA6
:100D200004006ED02078DFF84C93C007A9F10405C9
:100D30004AD009F104000168C1F38101012908D0FA
:100D40000068C0F3810002280AD1D9F800004002EF
:100D500006D52868800337D560680028E1D033E0E5
:100D60006068B0F5803F10D0B0F5A02F286810D093
:100D700020F480302860286820F480202860606893
:100D8000A8B1FFF73FFE06460DE0286840F480302A
:100D9000F4E740F480202860F7E700BFFFF732FE59
:100DA000801B642873D828688003F7D50CE0FFF710
:100DB00029FE064605E000BFFFF724FE801B6428DD
:100DC000F0D828688003F7D42078DFF8AC82800759
:100DD0004FF0000A3ED5A748001D016811F00C0F26
:100DE00008D00068C0F3810002280BD1D9F80000B8
:100DF000400207D42868800716D5E068012800D192
:100E000012E033E1E068B8B10120C8F80000FFF754
:100E1000F9FD064605E000BFFFF7F4FD801B022840
:100E2000C0D828688007F7D52868216920F0F80025
:100E300040EAC10028600DE0C8F800A0FFF7E2FD1D
:100E4000064604E0FFF7DEFD801B02281FD8286855
:100E50008007F7D42078000722D5864F874861693C
:100E6000703771B101210160FFF7CCFD064604E047
:100E7000FFF7C8FD801B022809D838688007F7D51E
:100E80000EE0C0F800A0FFF7BDFD064605E082E0D9
:100E9000FFF7B8FD801B02287DD838688007F7D49B
:100EA0002078400768D5DFF8CCB100270BF13C0B68
:100EB000DBF80000C0000BD4DBF8001041F08051DB
:100EC000CBF80010DBF80000012700F08050009004
:100ED0006B4E3068C00510D4306840F480703060CC
:100EE000FFF790FD009005E0FFF78CFD0099401A98
:100EF000022850D83068C005F6D55E4EA0686C3622
:100F000001280FD00528306810D020F00100306093
:100F1000306820F004003060A068B8B1FFF772FDBF
:100F200000900FE0306840F00100F4E740F004006A
:100F30003060F7E7FFF766FD0099411A41F288300B
:100F4000814266D830688007F4D50EE0FFF75AFD7D
:100F5000009007E0FFF756FD0099411A41F28830F2
:100F6000814256D830688007F4D42FB1DBF80010E6
:100F700021F08051CBF80010A069C8B33D49091D8C
:100F80000968C1F3810102294AD00228504607D0DE
:100F9000C8F8600000E03CE0FFF734FD04463BE0A9
:100FA0004746C8F86000FFF72DFD064605E000BF84
:100FB000FFF728FD801B02282BD828688001F7D472
:100FC000D4E907010843A16A2E4A490802EB01410E
:100FD000626A41EA8211084394F82C1040EA0161E8
:100FE000C9F8001001203866FFF70CFD044606E042
:100FF0003EE000BFFFF706FD001B022809D8286865
:101000008001F7D534E000BFFFF7FCFC001B02288D
:1010100002D90320BDE8F88F28688001F4D427E0C6
:101020000128F7D0D9F80000E26900F4800191426C
:101030001CD1226A00F03F01914217D147F6C071DE
:10104000626A0140B1EB821F10D1A26A4FF0FF33F8
:1010500000F4403103EB5202B1EB024F06D194F899
:101060002C1000F07060B0EB016F01D00120D1E7CF
:101070000020CFE70438024000004742800E47427C
:10108000007000400000FFFF10B5401EB0F1807FEF
:1010900001D3012010BD4FF0E02460610F216017E3
:1010A00001F01CF90020A06107202061002010BD84
:1010B0007047704770B590F83C20012A32D0012467
:1010C00080F83C40022280F83D2003685A689D6801
:1010D00022F070060A6832435A60134B02689A4243
:1010E00014D0B2F1804F11D0104B9A420ED0104B59
:1010F0009A420BD00F4B9A4208D00F4B9A4205D020
:101100000E4B9A4202D00E4B9A4204D1496825F008
:1011100080031943916080F83D40002180F83C1025
:10112000084670BD022070BD000001400004004070
:1011300000080040000C0040000401400040014055
:101140000018004010B5040003D094F83D0010B121
:1011500007E0012010BD002084F83C00204600F08C
:101160001FF8022084F83D00211D206800F0CCFD0E
:10117000012084F8460084F83E0084F83F0084F89B
:10118000400084F8410084F8420084F8430084F869
:10119000440084F8450084F83D00002010BD0000A4
:1011A00008B500680B49884212D10B48016841F02C
:1011B000100101600068002200F01000009011464C
:1011C0003620FFF78DFCBDE808403620FFF77ABCDB
:1011D00008BD0000001000404038024070472DE973
:1011E000F04104460068C66805694FF00007A9078A
:1011F00013D5B10711D5F91E0161012020772068B0
:1012000080698007204602D0FFF7E8FF04E000F085
:101210007EF8204600F07CF82777680716D570071F
:1012200014D521686FF0040008610220207720683F
:10123000806910F4407F204602D0FFF7CFFF04E022
:1012400000F065F8204600F063F82777280715D5E9
:10125000300713D521686FF008000861042020775B
:101260002068C0698007204602D0FFF7B7FF04E07E
:1012700000F04DF8204600F04BF82777E80616D529
:10128000F00614D521686FF010000861082020775F
:101290002068C06910F4407F204602D0FFF79EFF0F
:1012A00004E000F034F8204600F032F82777E80731
:1012B00008D0F00706D021686FF0010008612046D1
:1012C00000F027F8280608D5300606D521686FF00B
:1012D000800008612046FFF7EBFE680608D570061F
:1012E00006D521686FF040000861204600F012F832
:1012F000A8060AD5B00608D521686FF0200008615D
:101300002046BDE8F041FFF7D4BEBDE8F08170474C
:1013100070477047704738B5044690F8420020285F
:1013200001D0022038BD51B14AB101202063002014
:101330006063204600F010FF216B012901D00120DD
:1013400038BD21680A684968009121680C3151E86C
:10135000002F42F0100241E80023002BF5D138BDE8
:1013600018B5034690F84200202801D0022018BD8D
:1013700061B15AB10120186300205863184600F08B
:101380003BFF0028F3D1196B012901D0012018BDC2
:1013900019680A684968009119680C3151E8002FF2
:1013A00042F0100241E80024002CF5D118BD0000E5
:1013B00010B50C46134988420FD1214612A000F007
:1013C0007DFF22461A490F4800F004FBBDE810409B
:1013D000402217490B48FFF7C3BF1649884210D176
:1013E000214615A000F06AFF22461D49054800F07D
:1013F000F1FABDE810404FF4006219490D48FFF7BB
:101400008ABF10BDA8080020E4B8B2E58FA331E57B
:10141000B7B2E694B6E588B0E4B88DE5AE9AE99542
:10142000BFE695B0E68DAE2564E4B8AA5C720A000A
:1014300020000020F0080020E4B8B2E58FA333E5D7
:10144000B7B2E694B6E588B0E4B88DE5AE9AE99512
:10145000BFE695B0E68DAE2564E4B8AA5C720A00DA
:1014600060000020084982B088420AD108680168FB
:10147000406800904FF400620449034802B0FFF74F
:101480004ABF02B070470000F00800206000002052
:10149000F8B5016804460868CA684B6910F00F0F78
:1014A0004FF0000559D003F0010602F4907737435E
:1014B00065D0C10705D0D10503D5616C41F00101AC
:1014C0006164410705D5D90703D0616C41F0020181
:1014D0006164810705D5D90703D0616C41F004012F
:1014E0006164010707D502F02001314303D0616C2C
:1014F00041F008016164616C00293AD0800604D58E
:10150000900602D5204600F040FD20684069616CDD
:10151000C0F38010090700D460B3204600F000FD3E
:1015200020684069400621D52068143050E8001F2B
:1015300021F0400140E80012002AF5D1E06BA8B18B
:1015400072490165E06BFEF7A4FF002811D0E06B43
:10155000016D01B0BDE8F040084783060FD5930642
:101560000DD52046BDE8F84000F00FBD2046FFF73E
:1015700079FFF8BD2046FFF775FF6564F8BD266B5F
:101580002023012E7ED1C6067CD5D6067AD50868E2
:101590004868009048694FF0020640064DD5E26B5E
:1015A000106840684FF480770004000C3AD0A18D99
:1015B000814237D9E085D069B8422DD020680C30FF
:1015C00050E8001F21F4807140E80012002AF5D194
:1015D0002068143050E8001F21F0010140E800129B
:1015E000002AF5D12068143050E8001F21F0400196
:1015F00040E80012002AF5D184F8423025632068C3
:101600000C3050E8001F21F0100140E80012002AC1
:10161000F5D1E06BFEF7F4FE6663A08DE18D401A14
:1016200081B206E0A18D8142A8D1D069B842A5D18E
:1016300066632046FFF7BCFEF8BDA08DE18D401A21
:1016400081B2E08D0028F7D00029F5D020680C3059
:1016500050E8002F22F4907240E80027002FF5D1C7
:101660002068143050E8002F22F0010240E80027E3
:10167000002FF5D184F84230256320680C3050E803
:10168000002F00E006E022F0100240E80023002BCB
:10169000F3D1CDE705062BD5150629D594F84100E1
:1016A0002128C9D1A068B0F5805F01D12069B0B10F
:1016B000206A411C2162216800784860E08C401E4D
:1016C0000004000CE084B7D12068C16821F08001DB
:1016D000C1602068C16841F04001C160F8BD206A66
:1016E0000088C0F308004860206A801C2062E5E79B
:1016F0004006F3D55006F1D5CA68204622F04002D4
:10170000CA6084F8413000F07EF9F8BDD91D0008A8
:1017100070B5040004D094F84100002510B106E033
:10172000012070BD84F84050204600F023F82420AA
:1017300084F841002068C16821F40051C16020464E
:1017400000F084FC2068016921F490410161206867
:10175000416921F02A0141612068C16841F40051CA
:10176000C1606564202084F8410084F8420065630C
:10177000002070BD2DE9F04186B006461421684670
:10178000FEF756FD424F31684248022203230725E7
:101790000024B94221D13F4914310E6846F01006A9
:1017A0000E60096801F010010591016841F0010126
:1017B00001600068694600F00100059058028DE85C
:1017C0001500CDE903353448FFF71EF80022114615
:1017D0002520FFF785F9252054E0304FB94253D139
:1017E0002C4910310F6847F480270F60096801F415
:1017F00080210591016841F002010160006869469D
:1018000000F0020005904FF440608DE81500CDE92E
:1018100003352348FEF7F8FF234D22484FF00067B9
:101820002860C5E901744FF48068C5E903486C611C
:10183000AC61EC612C6228466C62FEF70DFF08B1CA
:10184000FEF7CBFDF563AE63174D164860353030BB
:10185000E5E802074020A5E81101134845F81449BE
:101860006030AC61EC612C626C62FEF7F5FE08B191
:10187000FEF7B3FDB563002211462720AE63FFF7E4
:101880002FF92720FFF71EF906B0BDE8F081000010
:101890000010014030380240000002400048004083
:1018A0000004024028600240380900207047704759
:1018B0002DE9F843044690F84100984616460D4637
:1018C000202802D00220BDE8F88385B17EB1002037
:1018D0006064212084F84100FFF794F8A6848146D3
:1018E000E684A0682027B0F5805F02D003E00120E5
:1018F000E9E7206910B12E4600250EE000260CE035
:101900008021204600F093FCA8B9C6B116F8010B5F
:1019100021684860E08C401EE084E08C4B464FF02C
:101920000002CDF800800028EAD14FF040012046A7
:1019300000F07DFC40B184F841700320C3E735F826
:10194000020BC0F30800E3E784F841700020BAE717
:1019500070B5044690F84100202801D0022070BDE7
:1019600001B3FAB12162A284E284002060642123E1
:1019700084F84130A56B144BEB63A56B134B2B64C0
:10198000A56B134BEB64A36B186520681346A56B1E
:10199000021D2846FEF7CAFE30B1102060642020E8
:1019A00084F84100012070BD21686FF0400008609C
:1019B0002068143050E8001F41F0800140E8001218
:1019C000002AF5D1002070BDD51E0008171F0008A1
:1019D000E71D000890F84130202B01D0022070470D
:1019E00079B172B101628284C284002141642121F3
:1019F00080F841100068C16841F08001C16000209A
:101A000070470120704770477047FEE70D4808B5E2
:101A1000016841F4001101600068002200F4001028
:101A2000009011460C20FFF75BF80C20FFF74AF8F6
:101A3000002211460E20FFF753F8BDE808400E20A3
:101A4000FFF740B8303802402DE9F04786B0142146
:101A50006846FEF7EDFB48480024016841F010019C
:101A60000160016801F010010591016841F0040175
:101A70000160016801F004010591016841F0200155
:101A80000160016801F020010591016841F08001C9
:101A90000160016801F080010591016841F00101D8
:101AA0000160016801F001010591016841F0020146
:101AB0000160016801F002010591016841F04001F7
:101AC000016000682D4E00F04000059001220421C5
:101AD0003046FEF791FFDFF8A8904FF4E07701223F
:101AE00039464846FEF788FFDFF898A04FF40048D3
:101AF000012241465046FEF77FFF04200090012559
:101B0000CDE90154694630460394FEF77DFE680333
:101B10004FF48816CDE90006694602941A48FEF78C
:101B200073FE0097CDE90154694648460394FEF7D9
:101B30006BFE0095CDE9016469461448FEF764FE2A
:101B4000CDF80080CDE90154694650460394FEF774
:101B50005BFE002211460620FEF7C2FF0620FEF7BC
:101B6000B1FF002211462820FEF7BAFF2820FEF719
:101B7000A9FF06B0BDE8F0873038024000100240EF
:101B80000014024000180240000802400000024019
:101B90001CB500240F4800940D49019401605321A5
:101BA000C0E9011440F2E731C16080218161FFF793
:101BB000C9FA08B1FEF711FC009469460548019482
:101BC000FFF778FA002801D0FEF707FC1CBD0000E3
:101BD00000100040600800200C4810B50A49016060
:101BE0004FF4E1314160002181600C22C160C0E905
:101BF00004128161C161FFF78BFD002803D0BDE8AD
:101C00001040FEF7EABB10BD00100140A8080020FC
:101C10000C4810B50A4901604FF4E13141600021E0
:101C200081600C22C160C0E904128161C161FFF7CB
:101C30006FFD002803D0BDE81040FEF7CEBB10BDFD
:101C400000480040F0080020FEE7FEE770477047BC
:101C5000FEF7DEBE30B593B030216846FEF7E8FAF5
:101C600014210CA8FEF7E4FA1E480025016841F093
:101C700080510160006800F0805011901A4801689E
:101C800041F4804101600068022400F4804011901A
:101C900001200090000401908001CDE90640192048
:101CA00008904FF4A870CDE9090404200B90684611
:101CB000FFF734F808B172B6FEE70CA90F2081E8EF
:101CC00031004FF4A0500F904FF480501090052138
:101CD0000CA8FEF737FF002801D072B6FEE713B05C
:101CE00030BD0000403802400070004002480168EA
:101CF00041F470010160704788ED00E00148FFF792
:101D00006EBA000060080020F0B50268274B284D2D
:101D1000284E294F294C4FF0804C984209D06045FD
:101D200007D0A84205D0B04203D0B84201D0A042AB
:101D300004D122F0700E4A6842EA0E0298421BD08B
:101D4000604519D0A84217D0B04215D0B84213D080
:101D5000A04211D01A4DA8420ED01A4DA8420BD065
:101D6000194DA84208D0194DA84205D0184DA842D7
:101D700002D0184DA84203D122F44075CA682A4304
:101D80004D6922F080022A438D68C5620D68856224
:101D9000984201D0A04201D109690163016841F074
:101DA00004010160012141610260F0BD00000140B9
:101DB0000004004000080040000C00400004014006
:101DC000004001400044014000480140001800402C
:101DD000001C00400020004010B5806B0021C18530
:101DE000FFF740FB10BD70B5846B2068406994F824
:101DF0004110C0F3C0100025212904D118B1E58499
:101E0000204600F0B4F82068406994F84210C0F30E
:101E10008010222904D118B1E585204600F080F811
:101E2000606C40F0100060642046FFF71BFB70BD43
:101E300010B50146806B096809684FF00002C905BA
:101E40002ED4C28501680C3151E8003F23F4807321
:101E500041E80034002CF5D10168143151E8003F0D
:101E600023F0010341E80034002CF5D1016814315E
:101E700051E8003F23F0400341E80034002CF5D145
:101E8000202180F84210016B012909D101680C3131
:101E900051E8003F23F0100341E80034002CF5D155
:101EA0004263016B012902D0FFF700FD10BD818D57
:101EB000FFF77EFA10BD10B5806B01214163016B05
:101EC000012902D0FFF7F3FC10BD818D4908FFF70F
:101ED0006FFA10BD10B50146806B09680968C90525
:101EE00016D40021C1840168143151E8002F22F07A
:101EF000800241E80023002BF5D101680C3151E844
:101F0000002F42F0400241E80023002BF5D110BD24
:101F1000FFF779FD10BD10B5806BFFF775FD10BDA3
:101F200001680C3151E8002F22F4907241E800233F
:101F3000002BF5D10168143151E8002F22F0010285
:101F400041E80023002BF5D1016B012909D101687B
:101F50000C3151E8002F22F0100241E80023002B41
:101F6000F5D1202180F842100021016370470168FB
:101F70000C3151E8002F22F0C00241E80023002B71
:101F8000F5D1202180F84110704708B590F8421033
:101F9000222901D0022008BD82684FF480539A4262
:101FA00001D1016921B1816A9A421BD04AB10AE08C
:101FB0000268816A5268C2F308020A80816A891C39
:101FC00008E0026972B10268526802F07F020A708A
:101FD000816A491C8162C18D491E0904090CC185B1
:101FE00003D01BE002685268F1E70168CA6822F07A
:101FF0002002CA600168CA6822F48072CA6001685F
:102000004A6922F001024A61202180F84210002131
:102010004163026B012A03D0FFF748FC002008BD92
:10202000016301680C3151E8002F22F0100241E8F1
:102030000023002BF5D101680A68D20602D50A6890
:1020400049680091818DFFF7B3F9E7E770B5044661
:1020500000680169E26821F440511143016121697E
:10206000A068E26908436169114308432168CA68AE
:1020700049F20C639A430243CA6020684169A2692D
:1020800021F440711143416131492068884202D0F6
:102090003049884202D1FEF7FFFD01E0FEF7ECFD7A
:1020A000E2690023192164253226B2F5004F6268E7
:1020B00028D0A0FB0101930F9200FEF781F80146A2
:1020C000B0FBF5F06FF01802504301EB800006EB17
:1020D0000010B0FBF5F000F0F002B1FBF5F002EB00
:1020E0000012B1FBF5F06FF01803584301EB8000CC
:1020F00006EB0010B0FBF5F000F00F002168104473
:10210000886070BDA0FB010192185B41FEF758F892
:102110000146B0FBF5F00201B1FBF5F06FF01803DA
:10212000584301EB800006EBC000B0FBF5F000F077
:10213000F80002EB4002B1FBF5F0584301EB8000E0
:1021400006EBC000B0FBF5F000F00700D6E700009A
:10215000001001400014014038B5816204468285B8
:10216000002013466064222284F84220E56B1F4A57
:10217000EA63E56B1E4A2A64E56B1E4AEA64E26B79
:1021800010650A462168E06B091DFEF7CFFA30B1F1
:1021900010206064202084F84200012038BD2068AF
:1021A000016840680090206948B120680C3050E810
:1021B000001F41F4807140E80012002AF5D1206828
:1021C000143050E8001F41F0010140E80012002ADD
:1021D000F5D12068143050E8001F41F0400140E87C
:1021E0000012002AF5D1002038BD0000311E000881
:1021F000B71E0008E71D000881628285C2850021A4
:102200004164222180F84210016921B10168CA6845
:1022100042F48072CA6001684A6942F001024A6170
:102220000068C16841F02001C160002070472DE9BD
:10223000F843984617460D460446089E24E0701C55
:1022400022D0FEF7DFFBA0EB0800B0421AD8CEB1D7
:102250002068C168490717D5802D15D0402D13D0AF
:102260000168C94309070FD4016800254068009040
:102270002046FFF755FE0820606484F84050012096
:10228000BDE8F8830320FBE72068006835EA00001A
:1022900004D00020B842D2D00020F1E70120F9E7B5
:1022A0000148FFF7F5B80000A80800200148FFF733
:1022B000EFB80000F0080020FEE700000FB4054B67
:1022C00010B503A9044A029800F028F810BC5DF884
:1022D00014FB0000712400081C0000200907090EEF
:1022E000002804DB00F1E02080F80014704700F0C3
:1022F0000F0000F1E02080F8141D704702E008C8CC
:10230000121F08C1002AFAD170477047002001E06F
:1023100001C1121F002AFBD1704700002DE9FF4FB9
:1023200089B09B460446002506E025280BD05A4676
:102330000B999047641C6D1C20780028F5D10DB0D6
:102340002846BDE8F08F0027B8460122474900E043
:10235000074314F8013F203B02FA03F00842F7D18B
:1023600020782E2819D114F8010F47F004072A28E5
:102370000ED06FF02F022078A0F1300109290CD87F
:1023800008EB880102EB410100EB0108641CF2E755
:102390000A98641C50F8048B0A9020780028CED04C
:1023A000642808D0692806D075281ED05A460B9993
:1023B00090476D1C58E00A994FF00A0901C90A912B
:1023C000002802DA40422D2102E0390504D52B21F4
:1023D0008DF82010012103E0F90704D02021F7E750
:1023E0008A4608AE0DE00021FAE70A994FF00A0983
:1023F00001C90A91F7E74946FDF725FF303106F894
:10240000011D0028F7D1ADEB060000F12009780787
:1024100001D44FF00108C84502DDA8EB090000E037
:1024200000208046002706E008A85A46C05D0B99A8
:1024300090476D1C7F1C5745F6DB04E030205A4660
:102440000B9990476D1CB8F10001A8F10108F5DC6B
:1024500005E016F8010B5A460B9990476D1CB9F12F
:102460000001A9F10109F4DC641C65E709280100F9
:1024700013B54FF0FF33012269460248FFF718FAFF
:1024800000981CBDA8080020FEF7CAFAFFF7E2FB7F
:10249000FFF7DAFAFFF7BAFAFFF77AFBFFF7B8FBB4
:1024A000FFF79AFBFDF778FF402206490648FEF742
:1024B00057FF04494FF4006240310448FEF72BFFF8
:1024C000FEE7000020000020A8080020F0080020FF
:1024D00000061016000610160000000000000000A4
:1024E00001020304060708090000000001020304BA
:1024F000102500080000002020000000FC22000839
:102500003025000820000020D80D00000C23000812
:1025100041542B474D520D0A0000000001000000FD
:1025200010000000000000000024F4000000000083
:040000050800018965
:00000001FF
